{
	"test.sol": {
		"HelloWorld": {
			"abi": [
				{
					"inputs": [
						{
							"internalType": "uint256",
							"name": "_id",
							"type": "uint256"
						}
					],
					"name": "sayHello",
					"outputs": [
						{
							"internalType": "string",
							"name": "",
							"type": "string"
						}
					],
					"stateMutability": "view",
					"type": "function"
				},
				{
					"inputs": [
						{
							"internalType": "string",
							"name": "params",
							"type": "string"
						}
					],
					"name": "sayHelloLang",
					"outputs": [],
					"stateMutability": "nonpayable",
					"type": "function"
				},
				{
					"inputs": [
						{
							"internalType": "string",
							"name": "message",
							"type": "string"
						},
						{
							"internalType": "uint256",
							"name": "_id",
							"type": "uint256"
						}
					],
					"name": "setInfos",
					"outputs": [],
					"stateMutability": "nonpayable",
					"type": "function"
				}
			],
			"devdoc": {
				"kind": "dev",
				"methods": {},
				"version": 1
			},
			"evm": {
				"assembly": "    /* \"test.sol\":120:1233  contract HelloWorld {... */\n  mstore(0x40, 0x80)\n    /* \"test.sol\":147:176  string sayStr = \"Hello World\" */\n  mload(0x40)\n  dup1\n  0x40\n  add\n  0x40\n  mstore\n  dup1\n  0x0b\n  dup2\n  mstore\n  0x20\n  add\n  0x48656c6c6f20576f726c64000000000000000000000000000000000000000000\n  dup2\n  mstore\n  pop\n  0x00\n  swap1\n  dup2\n  tag_1\n  swap2\n  swap1\n  tag_2\n  jump\t// in\ntag_1:\n  pop\n    /* \"test.sol\":120:1233  contract HelloWorld {... */\n  callvalue\n  dup1\n  iszero\n  tag_3\n  jumpi\n  revert(0x00, 0x00)\ntag_3:\n  pop\n  jump(tag_4)\n    /* \"#utility.yul\":7:106   */\ntag_5:\n    /* \"#utility.yul\":59:65   */\n  0x00\n    /* \"#utility.yul\":93:98   */\n  dup2\n    /* \"#utility.yul\":87:99   */\n  mload\n    /* \"#utility.yul\":77:99   */\n  swap1\n  pop\n    /* \"#utility.yul\":7:106   */\n  swap2\n  swap1\n  pop\n  jump\t// out\n    /* \"#utility.yul\":112:292   */\ntag_6:\n    /* \"#utility.yul\":160:237   */\n  0x4e487b7100000000000000000000000000000000000000000000000000000000\n    /* \"#utility.yul\":157:158   */\n  0x00\n    /* \"#utility.yul\":150:238   */\n  mstore\n    /* \"#utility.yul\":257:261   */\n  0x41\n    /* \"#utility.yul\":254:255   */\n  0x04\n    /* \"#utility.yul\":247:262   */\n  mstore\n    /* \"#utility.yul\":281:285   */\n  0x24\n    /* \"#utility.yul\":278:279   */\n  0x00\n    /* \"#utility.yul\":271:286   */\n  revert\n    /* \"#utility.yul\":298:478   */\ntag_7:\n    /* \"#utility.yul\":346:423   */\n  0x4e487b7100000000000000000000000000000000000000000000000000000000\n    /* \"#utility.yul\":343:344   */\n  0x00\n    /* \"#utility.yul\":336:424   */\n  mstore\n    /* \"#utility.yul\":443:447   */\n  0x22\n    /* \"#utility.yul\":440:441   */\n  0x04\n    /* \"#utility.yul\":433:448   */\n  mstore\n    /* \"#utility.yul\":467:471   */\n  0x24\n    /* \"#utility.yul\":464:465   */\n  0x00\n    /* \"#utility.yul\":457:472   */\n  revert\n    /* \"#utility.yul\":484:804   */\ntag_8:\n    /* \"#utility.yul\":528:534   */\n  0x00\n    /* \"#utility.yul\":565:566   */\n  0x02\n    /* \"#utility.yul\":559:563   */\n  dup3\n    /* \"#utility.yul\":555:567   */\n  div\n    /* \"#utility.yul\":545:567   */\n  swap1\n  pop\n    /* \"#utility.yul\":612:613   */\n  0x01\n    /* \"#utility.yul\":606:610   */\n  dup3\n    /* \"#utility.yul\":602:614   */\n  and\n    /* \"#utility.yul\":633:651   */\n  dup1\n    /* \"#utility.yul\":623:704   */\n  tag_30\n  jumpi\n    /* \"#utility.yul\":689:693   */\n  0x7f\n    /* \"#utility.yul\":681:687   */\n  dup3\n    /* \"#utility.yul\":677:694   */\n  and\n    /* \"#utility.yul\":667:694   */\n  swap2\n  pop\n    /* \"#utility.yul\":623:704   */\ntag_30:\n    /* \"#utility.yul\":751:753   */\n  0x20\n    /* \"#utility.yul\":743:749   */\n  dup3\n    /* \"#utility.yul\":740:754   */\n  lt\n    /* \"#utility.yul\":720:738   */\n  dup2\n    /* \"#utility.yul\":717:755   */\n  sub\n    /* \"#utility.yul\":714:798   */\n  tag_31\n  jumpi\n    /* \"#utility.yul\":770:788   */\n  tag_32\n  tag_7\n  jump\t// in\ntag_32:\n    /* \"#utility.yul\":714:798   */\ntag_31:\n    /* \"#utility.yul\":535:804   */\n  pop\n    /* \"#utility.yul\":484:804   */\n  swap2\n  swap1\n  pop\n  jump\t// out\n    /* \"#utility.yul\":810:951   */\ntag_9:\n    /* \"#utility.yul\":859:863   */\n  0x00\n    /* \"#utility.yul\":882:885   */\n  dup2\n    /* \"#utility.yul\":874:885   */\n  swap1\n  pop\n    /* \"#utility.yul\":905:908   */\n  dup2\n    /* \"#utility.yul\":902:903   */\n  0x00\n    /* \"#utility.yul\":895:909   */\n  mstore\n    /* \"#utility.yul\":939:943   */\n  0x20\n    /* \"#utility.yul\":936:937   */\n  0x00\n    /* \"#utility.yul\":926:944   */\n  keccak256\n    /* \"#utility.yul\":918:944   */\n  swap1\n  pop\n    /* \"#utility.yul\":810:951   */\n  swap2\n  swap1\n  pop\n  jump\t// out\n    /* \"#utility.yul\":957:1050   */\ntag_10:\n    /* \"#utility.yul\":994:1000   */\n  0x00\n    /* \"#utility.yul\":1041:1043   */\n  0x20\n    /* \"#utility.yul\":1036:1038   */\n  0x1f\n    /* \"#utility.yul\":1029:1034   */\n  dup4\n    /* \"#utility.yul\":1025:1039   */\n  add\n    /* \"#utility.yul\":1021:1044   */\n  div\n    /* \"#utility.yul\":1011:1044   */\n  swap1\n  pop\n    /* \"#utility.yul\":957:1050   */\n  swap2\n  swap1\n  pop\n  jump\t// out\n    /* \"#utility.yul\":1056:1163   */\ntag_11:\n    /* \"#utility.yul\":1100:1108   */\n  0x00\n    /* \"#utility.yul\":1150:1155   */\n  dup3\n    /* \"#utility.yul\":1144:1148   */\n  dup3\n    /* \"#utility.yul\":1140:1156   */\n  shl\n    /* \"#utility.yul\":1119:1156   */\n  swap1\n  pop\n    /* \"#utility.yul\":1056:1163   */\n  swap3\n  swap2\n  pop\n  pop\n  jump\t// out\n    /* \"#utility.yul\":1169:1562   */\ntag_12:\n    /* \"#utility.yul\":1238:1244   */\n  0x00\n    /* \"#utility.yul\":1288:1289   */\n  0x08\n    /* \"#utility.yul\":1276:1286   */\n  dup4\n    /* \"#utility.yul\":1272:1290   */\n  mul\n    /* \"#utility.yul\":1311:1408   */\n  tag_37\n    /* \"#utility.yul\":1341:1407   */\n  0xffffffffffffffffffffffffffffffffffffffffffffffffffffffffffffffff\n    /* \"#utility.yul\":1330:1339   */\n  dup3\n    /* \"#utility.yul\":1311:1408   */\n  tag_11\n  jump\t// in\ntag_37:\n    /* \"#utility.yul\":1429:1468   */\n  tag_38\n    /* \"#utility.yul\":1459:1467   */\n  dup7\n    /* \"#utility.yul\":1448:1457   */\n  dup4\n    /* \"#utility.yul\":1429:1468   */\n  tag_11\n  jump\t// in\ntag_38:\n    /* \"#utility.yul\":1417:1468   */\n  swap6\n  pop\n    /* \"#utility.yul\":1501:1505   */\n  dup1\n    /* \"#utility.yul\":1497:1506   */\n  not\n    /* \"#utility.yul\":1490:1495   */\n  dup5\n    /* \"#utility.yul\":1486:1507   */\n  and\n    /* \"#utility.yul\":1477:1507   */\n  swap4\n  pop\n    /* \"#utility.yul\":1550:1554   */\n  dup1\n    /* \"#utility.yul\":1540:1548   */\n  dup7\n    /* \"#utility.yul\":1536:1555   */\n  and\n    /* \"#utility.yul\":1529:1534   */\n  dup5\n    /* \"#utility.yul\":1526:1556   */\n  or\n    /* \"#utility.yul\":1516:1556   */\n  swap3\n  pop\n    /* \"#utility.yul\":1245:1562   */\n  pop\n  pop\n    /* \"#utility.yul\":1169:1562   */\n  swap4\n  swap3\n  pop\n  pop\n  pop\n  jump\t// out\n    /* \"#utility.yul\":1568:1645   */\ntag_13:\n    /* \"#utility.yul\":1605:1612   */\n  0x00\n    /* \"#utility.yul\":1634:1639   */\n  dup2\n    /* \"#utility.yul\":1623:1639   */\n  swap1\n  pop\n    /* \"#utility.yul\":1568:1645   */\n  swap2\n  swap1\n  pop\n  jump\t// out\n    /* \"#utility.yul\":1651:1711   */\ntag_14:\n    /* \"#utility.yul\":1679:1682   */\n  0x00\n    /* \"#utility.yul\":1700:1705   */\n  dup2\n    /* \"#utility.yul\":1693:1705   */\n  swap1\n  pop\n    /* \"#utility.yul\":1651:1711   */\n  swap2\n  swap1\n  pop\n  jump\t// out\n    /* \"#utility.yul\":1717:1859   */\ntag_15:\n    /* \"#utility.yul\":1767:1776   */\n  0x00\n    /* \"#utility.yul\":1800:1853   */\n  tag_42\n    /* \"#utility.yul\":1818:1852   */\n  tag_43\n    /* \"#utility.yul\":1827:1851   */\n  tag_44\n    /* \"#utility.yul\":1845:1850   */\n  dup5\n    /* \"#utility.yul\":1827:1851   */\n  tag_13\n  jump\t// in\ntag_44:\n    /* \"#utility.yul\":1818:1852   */\n  tag_14\n  jump\t// in\ntag_43:\n    /* \"#utility.yul\":1800:1853   */\n  tag_13\n  jump\t// in\ntag_42:\n    /* \"#utility.yul\":1787:1853   */\n  swap1\n  pop\n    /* \"#utility.yul\":1717:1859   */\n  swap2\n  swap1\n  pop\n  jump\t// out\n    /* \"#utility.yul\":1865:1940   */\ntag_16:\n    /* \"#utility.yul\":1908:1911   */\n  0x00\n    /* \"#utility.yul\":1929:1934   */\n  dup2\n    /* \"#utility.yul\":1922:1934   */\n  swap1\n  pop\n    /* \"#utility.yul\":1865:1940   */\n  swap2\n  swap1\n  pop\n  jump\t// out\n    /* \"#utility.yul\":1946:2215   */\ntag_17:\n    /* \"#utility.yul\":2056:2095   */\n  tag_47\n    /* \"#utility.yul\":2087:2094   */\n  dup4\n    /* \"#utility.yul\":2056:2095   */\n  tag_15\n  jump\t// in\ntag_47:\n    /* \"#utility.yul\":2117:2208   */\n  tag_48\n    /* \"#utility.yul\":2166:2207   */\n  tag_49\n    /* \"#utility.yul\":2190:2206   */\n  dup3\n    /* \"#utility.yul\":2166:2207   */\n  tag_16\n  jump\t// in\ntag_49:\n    /* \"#utility.yul\":2158:2164   */\n  dup5\n    /* \"#utility.yul\":2151:2155   */\n  dup5\n    /* \"#utility.yul\":2145:2156   */\n  sload\n    /* \"#utility.yul\":2117:2208   */\n  tag_12\n  jump\t// in\ntag_48:\n    /* \"#utility.yul\":2111:2115   */\n  dup3\n    /* \"#utility.yul\":2104:2209   */\n  sstore\n    /* \"#utility.yul\":2022:2215   */\n  pop\n    /* \"#utility.yul\":1946:2215   */\n  pop\n  pop\n  pop\n  jump\t// out\n    /* \"#utility.yul\":2221:2294   */\ntag_18:\n    /* \"#utility.yul\":2266:2269   */\n  0x00\n    /* \"#utility.yul\":2287:2288   */\n  0x00\n    /* \"#utility.yul\":2280:2288   */\n  swap1\n  pop\n    /* \"#utility.yul\":2221:2294   */\n  swap1\n  jump\t// out\n    /* \"#utility.yul\":2300:2489   */\ntag_19:\n    /* \"#utility.yul\":2377:2409   */\n  tag_52\n  tag_18\n  jump\t// in\ntag_52:\n    /* \"#utility.yul\":2418:2483   */\n  tag_53\n    /* \"#utility.yul\":2476:2482   */\n  dup2\n    /* \"#utility.yul\":2468:2474   */\n  dup5\n    /* \"#utility.yul\":2462:2466   */\n  dup5\n    /* \"#utility.yul\":2418:2483   */\n  tag_17\n  jump\t// in\ntag_53:\n    /* \"#utility.yul\":2353:2489   */\n  pop\n    /* \"#utility.yul\":2300:2489   */\n  pop\n  pop\n  jump\t// out\n    /* \"#utility.yul\":2495:2681   */\ntag_20:\n    /* \"#utility.yul\":2555:2675   */\ntag_55:\n    /* \"#utility.yul\":2572:2575   */\n  dup2\n    /* \"#utility.yul\":2565:2570   */\n  dup2\n    /* \"#utility.yul\":2562:2576   */\n  lt\n    /* \"#utility.yul\":2555:2675   */\n  iszero\n  tag_57\n  jumpi\n    /* \"#utility.yul\":2626:2665   */\n  tag_58\n    /* \"#utility.yul\":2663:2664   */\n  0x00\n    /* \"#utility.yul\":2656:2661   */\n  dup3\n    /* \"#utility.yul\":2626:2665   */\n  tag_19\n  jump\t// in\ntag_58:\n    /* \"#utility.yul\":2599:2600   */\n  0x01\n    /* \"#utility.yul\":2592:2597   */\n  dup2\n    /* \"#utility.yul\":2588:2601   */\n  add\n    /* \"#utility.yul\":2579:2601   */\n  swap1\n  pop\n    /* \"#utility.yul\":2555:2675   */\n  jump(tag_55)\ntag_57:\n    /* \"#utility.yul\":2495:2681   */\n  pop\n  pop\n  jump\t// out\n    /* \"#utility.yul\":2687:3230   */\ntag_21:\n    /* \"#utility.yul\":2788:2790   */\n  0x1f\n    /* \"#utility.yul\":2783:2786   */\n  dup3\n    /* \"#utility.yul\":2780:2791   */\n  gt\n    /* \"#utility.yul\":2777:3223   */\n  iszero\n  tag_60\n  jumpi\n    /* \"#utility.yul\":2822:2860   */\n  tag_61\n    /* \"#utility.yul\":2854:2859   */\n  dup2\n    /* \"#utility.yul\":2822:2860   */\n  tag_9\n  jump\t// in\ntag_61:\n    /* \"#utility.yul\":2906:2935   */\n  tag_62\n    /* \"#utility.yul\":2924:2934   */\n  dup5\n    /* \"#utility.yul\":2906:2935   */\n  tag_10\n  jump\t// in\ntag_62:\n    /* \"#utility.yul\":2896:2904   */\n  dup2\n    /* \"#utility.yul\":2892:2936   */\n  add\n    /* \"#utility.yul\":3089:3091   */\n  0x20\n    /* \"#utility.yul\":3077:3087   */\n  dup6\n    /* \"#utility.yul\":3074:3092   */\n  lt\n    /* \"#utility.yul\":3071:3120   */\n  iszero\n  tag_63\n  jumpi\n    /* \"#utility.yul\":3110:3118   */\n  dup2\n    /* \"#utility.yul\":3095:3118   */\n  swap1\n  pop\n    /* \"#utility.yul\":3071:3120   */\ntag_63:\n    /* \"#utility.yul\":3133:3213   */\n  tag_64\n    /* \"#utility.yul\":3189:3211   */\n  tag_65\n    /* \"#utility.yul\":3207:3210   */\n  dup6\n    /* \"#utility.yul\":3189:3211   */\n  tag_10\n  jump\t// in\ntag_65:\n    /* \"#utility.yul\":3179:3187   */\n  dup4\n    /* \"#utility.yul\":3175:3212   */\n  add\n    /* \"#utility.yul\":3162:3173   */\n  dup3\n    /* \"#utility.yul\":3133:3213   */\n  tag_20\n  jump\t// in\ntag_64:\n    /* \"#utility.yul\":2792:3223   */\n  pop\n  pop\n    /* \"#utility.yul\":2777:3223   */\ntag_60:\n    /* \"#utility.yul\":2687:3230   */\n  pop\n  pop\n  pop\n  jump\t// out\n    /* \"#utility.yul\":3236:3353   */\ntag_22:\n    /* \"#utility.yul\":3290:3298   */\n  0x00\n    /* \"#utility.yul\":3340:3345   */\n  dup3\n    /* \"#utility.yul\":3334:3338   */\n  dup3\n    /* \"#utility.yul\":3330:3346   */\n  shr\n    /* \"#utility.yul\":3309:3346   */\n  swap1\n  pop\n    /* \"#utility.yul\":3236:3353   */\n  swap3\n  swap2\n  pop\n  pop\n  jump\t// out\n    /* \"#utility.yul\":3359:3528   */\ntag_23:\n    /* \"#utility.yul\":3403:3409   */\n  0x00\n    /* \"#utility.yul\":3436:3487   */\n  tag_68\n    /* \"#utility.yul\":3484:3485   */\n  0x00\n    /* \"#utility.yul\":3480:3486   */\n  not\n    /* \"#utility.yul\":3472:3477   */\n  dup5\n    /* \"#utility.yul\":3469:3470   */\n  0x08\n    /* \"#utility.yul\":3465:3478   */\n  mul\n    /* \"#utility.yul\":3436:3487   */\n  tag_22\n  jump\t// in\ntag_68:\n    /* \"#utility.yul\":3432:3488   */\n  not\n    /* \"#utility.yul\":3517:3521   */\n  dup1\n    /* \"#utility.yul\":3511:3515   */\n  dup4\n    /* \"#utility.yul\":3507:3522   */\n  and\n    /* \"#utility.yul\":3497:3522   */\n  swap2\n  pop\n    /* \"#utility.yul\":3410:3528   */\n  pop\n    /* \"#utility.yul\":3359:3528   */\n  swap3\n  swap2\n  pop\n  pop\n  jump\t// out\n    /* \"#utility.yul\":3533:3828   */\ntag_24:\n    /* \"#utility.yul\":3609:3613   */\n  0x00\n    /* \"#utility.yul\":3755:3784   */\n  tag_70\n    /* \"#utility.yul\":3780:3783   */\n  dup4\n    /* \"#utility.yul\":3774:3778   */\n  dup4\n    /* \"#utility.yul\":3755:3784   */\n  tag_23\n  jump\t// in\ntag_70:\n    /* \"#utility.yul\":3747:3784   */\n  swap2\n  pop\n    /* \"#utility.yul\":3817:3820   */\n  dup3\n    /* \"#utility.yul\":3814:3815   */\n  0x02\n    /* \"#utility.yul\":3810:3821   */\n  mul\n    /* \"#utility.yul\":3804:3808   */\n  dup3\n    /* \"#utility.yul\":3801:3822   */\n  or\n    /* \"#utility.yul\":3793:3822   */\n  swap1\n  pop\n    /* \"#utility.yul\":3533:3828   */\n  swap3\n  swap2\n  pop\n  pop\n  jump\t// out\n    /* \"#utility.yul\":3833:5228   */\ntag_2:\n    /* \"#utility.yul\":3950:3987   */\n  tag_72\n    /* \"#utility.yul\":3983:3986   */\n  dup3\n    /* \"#utility.yul\":3950:3987   */\n  tag_5\n  jump\t// in\ntag_72:\n    /* \"#utility.yul\":4052:4070   */\n  0xffffffffffffffff\n    /* \"#utility.yul\":4044:4050   */\n  dup2\n    /* \"#utility.yul\":4041:4071   */\n  gt\n    /* \"#utility.yul\":4038:4094   */\n  iszero\n  tag_73\n  jumpi\n    /* \"#utility.yul\":4074:4092   */\n  tag_74\n  tag_6\n  jump\t// in\ntag_74:\n    /* \"#utility.yul\":4038:4094   */\ntag_73:\n    /* \"#utility.yul\":4118:4156   */\n  tag_75\n    /* \"#utility.yul\":4150:4154   */\n  dup3\n    /* \"#utility.yul\":4144:4155   */\n  sload\n    /* \"#utility.yul\":4118:4156   */\n  tag_8\n  jump\t// in\ntag_75:\n    /* \"#utility.yul\":4203:4270   */\n  tag_76\n    /* \"#utility.yul\":4263:4269   */\n  dup3\n    /* \"#utility.yul\":4255:4261   */\n  dup3\n    /* \"#utility.yul\":4249:4253   */\n  dup6\n    /* \"#utility.yul\":4203:4270   */\n  tag_21\n  jump\t// in\ntag_76:\n    /* \"#utility.yul\":4297:4298   */\n  0x00\n    /* \"#utility.yul\":4321:4325   */\n  0x20\n    /* \"#utility.yul\":4308:4325   */\n  swap1\n  pop\n    /* \"#utility.yul\":4353:4355   */\n  0x1f\n    /* \"#utility.yul\":4345:4351   */\n  dup4\n    /* \"#utility.yul\":4342:4356   */\n  gt\n    /* \"#utility.yul\":4370:4371   */\n  0x01\n    /* \"#utility.yul\":4365:4983   */\n  dup2\n  eq\n  tag_78\n  jumpi\n    /* \"#utility.yul\":5027:5028   */\n  0x00\n    /* \"#utility.yul\":5044:5050   */\n  dup5\n    /* \"#utility.yul\":5041:5118   */\n  iszero\n  tag_79\n  jumpi\n    /* \"#utility.yul\":5093:5102   */\n  dup3\n    /* \"#utility.yul\":5088:5091   */\n  dup8\n    /* \"#utility.yul\":5084:5103   */\n  add\n    /* \"#utility.yul\":5078:5104   */\n  mload\n    /* \"#utility.yul\":5069:5104   */\n  swap1\n  pop\n    /* \"#utility.yul\":5041:5118   */\ntag_79:\n    /* \"#utility.yul\":5144:5211   */\n  tag_80\n    /* \"#utility.yul\":5204:5210   */\n  dup6\n    /* \"#utility.yul\":5197:5202   */\n  dup3\n    /* \"#utility.yul\":5144:5211   */\n  tag_24\n  jump\t// in\ntag_80:\n    /* \"#utility.yul\":5138:5142   */\n  dup7\n    /* \"#utility.yul\":5131:5212   */\n  sstore\n    /* \"#utility.yul\":5000:5222   */\n  pop\n    /* \"#utility.yul\":4335:5222   */\n  jump(tag_77)\n    /* \"#utility.yul\":4365:4983   */\ntag_78:\n    /* \"#utility.yul\":4417:4421   */\n  0x1f\n    /* \"#utility.yul\":4413:4422   */\n  not\n    /* \"#utility.yul\":4405:4411   */\n  dup5\n    /* \"#utility.yul\":4401:4423   */\n  and\n    /* \"#utility.yul\":4451:4488   */\n  tag_81\n    /* \"#utility.yul\":4483:4487   */\n  dup7\n    /* \"#utility.yul\":4451:4488   */\n  tag_9\n  jump\t// in\ntag_81:\n    /* \"#utility.yul\":4510:4511   */\n  0x00\n    /* \"#utility.yul\":4524:4732   */\ntag_82:\n    /* \"#utility.yul\":4538:4545   */\n  dup3\n    /* \"#utility.yul\":4535:4536   */\n  dup2\n    /* \"#utility.yul\":4532:4546   */\n  lt\n    /* \"#utility.yul\":4524:4732   */\n  iszero\n  tag_84\n  jumpi\n    /* \"#utility.yul\":4617:4626   */\n  dup5\n    /* \"#utility.yul\":4612:4615   */\n  dup10\n    /* \"#utility.yul\":4608:4627   */\n  add\n    /* \"#utility.yul\":4602:4628   */\n  mload\n    /* \"#utility.yul\":4594:4600   */\n  dup3\n    /* \"#utility.yul\":4587:4629   */\n  sstore\n    /* \"#utility.yul\":4668:4669   */\n  0x01\n    /* \"#utility.yul\":4660:4666   */\n  dup3\n    /* \"#utility.yul\":4656:4670   */\n  add\n    /* \"#utility.yul\":4646:4670   */\n  swap2\n  pop\n    /* \"#utility.yul\":4715:4717   */\n  0x20\n    /* \"#utility.yul\":4704:4713   */\n  dup6\n    /* \"#utility.yul\":4700:4718   */\n  add\n    /* \"#utility.yul\":4687:4718   */\n  swap5\n  pop\n    /* \"#utility.yul\":4561:4565   */\n  0x20\n    /* \"#utility.yul\":4558:4559   */\n  dup2\n    /* \"#utility.yul\":4554:4566   */\n  add\n    /* \"#utility.yul\":4549:4566   */\n  swap1\n  pop\n    /* \"#utility.yul\":4524:4732   */\n  jump(tag_82)\ntag_84:\n    /* \"#utility.yul\":4760:4766   */\n  dup7\n    /* \"#utility.yul\":4751:4758   */\n  dup4\n    /* \"#utility.yul\":4748:4767   */\n  lt\n    /* \"#utility.yul\":4745:4924   */\n  iszero\n  tag_85\n  jumpi\n    /* \"#utility.yul\":4818:4827   */\n  dup5\n    /* \"#utility.yul\":4813:4816   */\n  dup10\n    /* \"#utility.yul\":4809:4828   */\n  add\n    /* \"#utility.yul\":4803:4829   */\n  mload\n    /* \"#utility.yul\":4861:4909   */\n  tag_86\n    /* \"#utility.yul\":4903:4907   */\n  0x1f\n    /* \"#utility.yul\":4895:4901   */\n  dup10\n    /* \"#utility.yul\":4891:4908   */\n  and\n    /* \"#utility.yul\":4880:4889   */\n  dup3\n    /* \"#utility.yul\":4861:4909   */\n  tag_23\n  jump\t// in\ntag_86:\n    /* \"#utility.yul\":4853:4859   */\n  dup4\n    /* \"#utility.yul\":4846:4910   */\n  sstore\n    /* \"#utility.yul\":4768:4924   */\n  pop\n    /* \"#utility.yul\":4745:4924   */\ntag_85:\n    /* \"#utility.yul\":4970:4971   */\n  0x01\n    /* \"#utility.yul\":4966:4967   */\n  0x02\n    /* \"#utility.yul\":4958:4964   */\n  dup9\n    /* \"#utility.yul\":4954:4968   */\n  mul\n    /* \"#utility.yul\":4950:4972   */\n  add\n    /* \"#utility.yul\":4944:4948   */\n  dup9\n    /* \"#utility.yul\":4937:4973   */\n  sstore\n    /* \"#utility.yul\":4372:4983   */\n  pop\n  pop\n  pop\n    /* \"#utility.yul\":4335:5222   */\ntag_77:\n  pop\n    /* \"#utility.yul\":3925:5228   */\n  pop\n  pop\n  pop\n    /* \"#utility.yul\":3833:5228   */\n  pop\n  pop\n  jump\t// out\n    /* \"test.sol\":120:1233  contract HelloWorld {... */\ntag_4:\n  dataSize(sub_0)\n  dup1\n  dataOffset(sub_0)\n  0x00\n  codecopy\n  0x00\n  return\nstop\n\nsub_0: assembly {\n        /* \"test.sol\":120:1233  contract HelloWorld {... */\n      mstore(0x40, 0x80)\n      callvalue\n      dup1\n      iszero\n      tag_1\n      jumpi\n      revert(0x00, 0x00)\n    tag_1:\n      pop\n      jumpi(tag_2, lt(calldatasize, 0x04))\n      shr(0xe0, calldataload(0x00))\n      dup1\n      0x23516793\n      eq\n      tag_3\n      jumpi\n      dup1\n      0x42257b31\n      eq\n      tag_4\n      jumpi\n      dup1\n      0xfe79ec20\n      eq\n      tag_5\n      jumpi\n    tag_2:\n      revert(0x00, 0x00)\n        /* \"test.sol\":1040:1230  function setInfos(string memory message, uint256 _id) public {... */\n    tag_3:\n      tag_6\n      0x04\n      dup1\n      calldatasize\n      sub\n      dup2\n      add\n      swap1\n      tag_7\n      swap2\n      swap1\n      tag_8\n      jump\t// in\n    tag_7:\n      tag_9\n      jump\t// in\n    tag_6:\n      stop\n        /* \"test.sol\":350:794  function sayHello(uint256 _id) public view returns(string memory) {... */\n    tag_4:\n      tag_10\n      0x04\n      dup1\n      calldatasize\n      sub\n      dup2\n      add\n      swap1\n      tag_11\n      swap2\n      swap1\n      tag_12\n      jump\t// in\n    tag_11:\n      tag_13\n      jump\t// in\n    tag_10:\n      mload(0x40)\n      tag_14\n      swap2\n      swap1\n      tag_15\n      jump\t// in\n    tag_14:\n      mload(0x40)\n      dup1\n      swap2\n      sub\n      swap1\n      return\n        /* \"test.sol\":802:888  function sayHelloLang(string memory params) public  {... */\n    tag_5:\n      tag_16\n      0x04\n      dup1\n      calldatasize\n      sub\n      dup2\n      add\n      swap1\n      tag_17\n      swap2\n      swap1\n      tag_18\n      jump\t// in\n    tag_17:\n      tag_19\n      jump\t// in\n    tag_16:\n      stop\n        /* \"test.sol\":1040:1230  function setInfos(string memory message, uint256 _id) public {... */\n    tag_9:\n        /* \"test.sol\":1112:1128  Info memory info */\n      0x00\n        /* \"test.sol\":1131:1161  Info(_id, message, msg.sender) */\n      mload(0x40)\n      dup1\n      0x60\n      add\n      0x40\n      mstore\n      dup1\n        /* \"test.sol\":1136:1139  _id */\n      dup4\n        /* \"test.sol\":1131:1161  Info(_id, message, msg.sender) */\n      dup2\n      mstore\n      0x20\n      add\n        /* \"test.sol\":1141:1148  message */\n      dup5\n        /* \"test.sol\":1131:1161  Info(_id, message, msg.sender) */\n      dup2\n      mstore\n      0x20\n      add\n        /* \"test.sol\":1150:1160  msg.sender */\n      caller\n        /* \"test.sol\":1131:1161  Info(_id, message, msg.sender) */\n      0xffffffffffffffffffffffffffffffffffffffff\n      and\n      dup2\n      mstore\n      pop\n        /* \"test.sol\":1112:1161  Info memory info = Info(_id, message, msg.sender) */\n      swap1\n      pop\n        /* \"test.sol\":1191:1195  info */\n      dup1\n        /* \"test.sol\":1172:1183  infoMapping */\n      0x02\n        /* \"test.sol\":1172:1188  infoMapping[_id] */\n      0x00\n        /* \"test.sol\":1184:1187  _id */\n      dup5\n        /* \"test.sol\":1172:1188  infoMapping[_id] */\n      dup2\n      mstore\n      0x20\n      add\n      swap1\n      dup2\n      mstore\n      0x20\n      add\n      0x00\n      keccak256\n        /* \"test.sol\":1172:1195  infoMapping[_id] = info */\n      0x00\n      dup3\n      add\n      mload\n      dup2\n      0x00\n      add\n      sstore\n      0x20\n      dup3\n      add\n      mload\n      dup2\n      0x01\n      add\n      swap1\n      dup2\n      tag_21\n      swap2\n      swap1\n      tag_22\n      jump\t// in\n    tag_21:\n      pop\n      0x40\n      dup3\n      add\n      mload\n      dup2\n      0x02\n      add\n      exp(0x0100, 0x00)\n      dup2\n      sload\n      dup2\n      0xffffffffffffffffffffffffffffffffffffffff\n      mul\n      not\n      and\n      swap1\n      dup4\n      0xffffffffffffffffffffffffffffffffffffffff\n      and\n      mul\n      or\n      swap1\n      sstore\n      pop\n      swap1\n      pop\n      pop\n        /* \"test.sol\":1206:1211  infos */\n      0x01\n        /* \"test.sol\":1217:1221  info */\n      dup2\n        /* \"test.sol\":1206:1222  infos.push(info) */\n      swap1\n      dup1\n      0x01\n      dup2\n      sload\n      add\n      dup1\n      dup3\n      sstore\n      dup1\n      swap2\n      pop\n      pop\n      0x01\n      swap1\n      sub\n      swap1\n      0x00\n      mstore\n      keccak256(0x00, 0x20)\n      swap1\n      0x03\n      mul\n      add\n      0x00\n      swap1\n      swap2\n      swap1\n      swap2\n      swap1\n      swap2\n      pop\n      0x00\n      dup3\n      add\n      mload\n      dup2\n      0x00\n      add\n      sstore\n      0x20\n      dup3\n      add\n      mload\n      dup2\n      0x01\n      add\n      swap1\n      dup2\n      tag_24\n      swap2\n      swap1\n      tag_22\n      jump\t// in\n    tag_24:\n      pop\n      0x40\n      dup3\n      add\n      mload\n      dup2\n      0x02\n      add\n      exp(0x0100, 0x00)\n      dup2\n      sload\n      dup2\n      0xffffffffffffffffffffffffffffffffffffffff\n      mul\n      not\n      and\n      swap1\n      dup4\n      0xffffffffffffffffffffffffffffffffffffffff\n      and\n      mul\n      or\n      swap1\n      sstore\n      pop\n      pop\n      pop\n        /* \"test.sol\":1101:1230  {... */\n      pop\n        /* \"test.sol\":1040:1230  function setInfos(string memory message, uint256 _id) public {... */\n      pop\n      pop\n      jump\t// out\n        /* \"test.sol\":350:794  function sayHello(uint256 _id) public view returns(string memory) {... */\n    tag_13:\n        /* \"test.sol\":401:414  string memory */\n      0x60\n        /* \"test.sol\":463:466  0x0 */\n      0x00\n        /* \"test.sol\":430:467  infoMapping[_id].addr == address(0x0) */\n      0xffffffffffffffffffffffffffffffffffffffff\n      and\n        /* \"test.sol\":430:441  infoMapping */\n      0x02\n        /* \"test.sol\":430:446  infoMapping[_id] */\n      0x00\n        /* \"test.sol\":442:445  _id */\n      dup5\n        /* \"test.sol\":430:446  infoMapping[_id] */\n      dup2\n      mstore\n      0x20\n      add\n      swap1\n      dup2\n      mstore\n      0x20\n      add\n      0x00\n      keccak256\n        /* \"test.sol\":430:451  infoMapping[_id].addr */\n      0x02\n      add\n      0x00\n      swap1\n      sload\n      swap1\n      0x0100\n      exp\n      swap1\n      div\n      0xffffffffffffffffffffffffffffffffffffffff\n      and\n        /* \"test.sol\":430:467  infoMapping[_id].addr == address(0x0) */\n      0xffffffffffffffffffffffffffffffffffffffff\n      and\n      sub\n        /* \"test.sol\":427:518  if(infoMapping[_id].addr == address(0x0)) {... */\n      tag_26\n      jumpi\n        /* \"test.sol\":491:506  addInfo(sayStr) */\n      tag_27\n        /* \"test.sol\":499:505  sayStr */\n      0x00\n        /* \"test.sol\":491:506  addInfo(sayStr) */\n      dup1\n      sload\n      tag_28\n      swap1\n      tag_29\n      jump\t// in\n    tag_28:\n      dup1\n      0x1f\n      add\n      0x20\n      dup1\n      swap2\n      div\n      mul\n      0x20\n      add\n      mload(0x40)\n      swap1\n      dup2\n      add\n      0x40\n      mstore\n      dup1\n      swap3\n      swap2\n      swap1\n      dup2\n      dup2\n      mstore\n      0x20\n      add\n      dup3\n      dup1\n      sload\n      tag_30\n      swap1\n      tag_29\n      jump\t// in\n    tag_30:\n      dup1\n      iszero\n      tag_31\n      jumpi\n      dup1\n      0x1f\n      lt\n      tag_32\n      jumpi\n      0x0100\n      dup1\n      dup4\n      sload\n      div\n      mul\n      dup4\n      mstore\n      swap2\n      0x20\n      add\n      swap2\n      jump(tag_31)\n    tag_32:\n      dup3\n      add\n      swap2\n      swap1\n      0x00\n      mstore\n      keccak256(0x00, 0x20)\n      swap1\n    tag_33:\n      dup2\n      sload\n      dup2\n      mstore\n      swap1\n      0x01\n      add\n      swap1\n      0x20\n      add\n      dup1\n      dup4\n      gt\n      tag_33\n      jumpi\n      dup3\n      swap1\n      sub\n      0x1f\n      and\n      dup3\n      add\n      swap2\n    tag_31:\n      pop\n      pop\n      pop\n      pop\n      pop\n        /* \"test.sol\":491:498  addInfo */\n      tag_34\n        /* \"test.sol\":491:506  addInfo(sayStr) */\n      jump\t// in\n    tag_27:\n        /* \"test.sol\":484:506  return addInfo(sayStr) */\n      swap1\n      pop\n      jump(tag_25)\n        /* \"test.sol\":427:518  if(infoMapping[_id].addr == address(0x0)) {... */\n    tag_26:\n        /* \"test.sol\":535:567  addInfo(infoMapping[_id].phrase) */\n      tag_35\n        /* \"test.sol\":543:554  infoMapping */\n      0x02\n        /* \"test.sol\":543:559  infoMapping[_id] */\n      0x00\n        /* \"test.sol\":555:558  _id */\n      dup5\n        /* \"test.sol\":543:559  infoMapping[_id] */\n      dup2\n      mstore\n      0x20\n      add\n      swap1\n      dup2\n      mstore\n      0x20\n      add\n      0x00\n      keccak256\n        /* \"test.sol\":543:566  infoMapping[_id].phrase */\n      0x01\n      add\n        /* \"test.sol\":535:567  addInfo(infoMapping[_id].phrase) */\n      dup1\n      sload\n      tag_36\n      swap1\n      tag_29\n      jump\t// in\n    tag_36:\n      dup1\n      0x1f\n      add\n      0x20\n      dup1\n      swap2\n      div\n      mul\n      0x20\n      add\n      mload(0x40)\n      swap1\n      dup2\n      add\n      0x40\n      mstore\n      dup1\n      swap3\n      swap2\n      swap1\n      dup2\n      dup2\n      mstore\n      0x20\n      add\n      dup3\n      dup1\n      sload\n      tag_37\n      swap1\n      tag_29\n      jump\t// in\n    tag_37:\n      dup1\n      iszero\n      tag_38\n      jumpi\n      dup1\n      0x1f\n      lt\n      tag_39\n      jumpi\n      0x0100\n      dup1\n      dup4\n      sload\n      div\n      mul\n      dup4\n      mstore\n      swap2\n      0x20\n      add\n      swap2\n      jump(tag_38)\n    tag_39:\n      dup3\n      add\n      swap2\n      swap1\n      0x00\n      mstore\n      keccak256(0x00, 0x20)\n      swap1\n    tag_40:\n      dup2\n      sload\n      dup2\n      mstore\n      swap1\n      0x01\n      add\n      swap1\n      0x20\n      add\n      dup1\n      dup4\n      gt\n      tag_40\n      jumpi\n      dup3\n      swap1\n      sub\n      0x1f\n      and\n      dup3\n      add\n      swap2\n    tag_38:\n      pop\n      pop\n      pop\n      pop\n      pop\n        /* \"test.sol\":535:542  addInfo */\n      tag_34\n        /* \"test.sol\":535:567  addInfo(infoMapping[_id].phrase) */\n      jump\t// in\n    tag_35:\n        /* \"test.sol\":528:567  return addInfo(infoMapping[_id].phrase) */\n      swap1\n      pop\n        /* \"test.sol\":350:794  function sayHello(uint256 _id) public view returns(string memory) {... */\n    tag_25:\n      swap2\n      swap1\n      pop\n      jump\t// out\n        /* \"test.sol\":802:888  function sayHelloLang(string memory params) public  {... */\n    tag_19:\n        /* \"test.sol\":874:880  params */\n      dup1\n        /* \"test.sol\":865:871  sayStr */\n      0x00\n        /* \"test.sol\":865:880  sayStr = params */\n      swap1\n      dup2\n      tag_42\n      swap2\n      swap1\n      tag_22\n      jump\t// in\n    tag_42:\n      pop\n        /* \"test.sol\":802:888  function sayHelloLang(string memory params) public  {... */\n      pop\n      jump\t// out\n        /* \"test.sol\":896:1028  function addInfo(string memory params) internal pure returns (string memory) {... */\n    tag_34:\n        /* \"test.sol\":958:971  string memory */\n      0x60\n        /* \"test.sol\":1005:1011  params */\n      dup2\n        /* \"test.sol\":991:1020  string.concat(params, ' LJW') */\n      add(0x20, mload(0x40))\n      tag_44\n      swap2\n      swap1\n      tag_45\n      jump\t// in\n    tag_44:\n      mload(0x40)\n      0x20\n      dup2\n      dup4\n      sub\n      sub\n      dup2\n      mstore\n      swap1\n      0x40\n      mstore\n        /* \"test.sol\":984:1020  return string.concat(params, ' LJW') */\n      swap1\n      pop\n        /* \"test.sol\":896:1028  function addInfo(string memory params) internal pure returns (string memory) {... */\n      swap2\n      swap1\n      pop\n      jump\t// out\n        /* \"#utility.yul\":7:82   */\n    tag_46:\n        /* \"#utility.yul\":40:46   */\n      0x00\n        /* \"#utility.yul\":73:75   */\n      0x40\n        /* \"#utility.yul\":67:76   */\n      mload\n        /* \"#utility.yul\":57:76   */\n      swap1\n      pop\n        /* \"#utility.yul\":7:82   */\n      swap1\n      jump\t// out\n        /* \"#utility.yul\":88:205   */\n    tag_47:\n        /* \"#utility.yul\":197:198   */\n      0x00\n        /* \"#utility.yul\":194:195   */\n      0x00\n        /* \"#utility.yul\":187:199   */\n      revert\n        /* \"#utility.yul\":211:328   */\n    tag_48:\n        /* \"#utility.yul\":320:321   */\n      0x00\n        /* \"#utility.yul\":317:318   */\n      0x00\n        /* \"#utility.yul\":310:322   */\n      revert\n        /* \"#utility.yul\":334:451   */\n    tag_49:\n        /* \"#utility.yul\":443:444   */\n      0x00\n        /* \"#utility.yul\":440:441   */\n      0x00\n        /* \"#utility.yul\":433:445   */\n      revert\n        /* \"#utility.yul\":457:574   */\n    tag_50:\n        /* \"#utility.yul\":566:567   */\n      0x00\n        /* \"#utility.yul\":563:564   */\n      0x00\n        /* \"#utility.yul\":556:568   */\n      revert\n        /* \"#utility.yul\":580:682   */\n    tag_51:\n        /* \"#utility.yul\":621:627   */\n      0x00\n        /* \"#utility.yul\":672:674   */\n      0x1f\n        /* \"#utility.yul\":668:675   */\n      not\n        /* \"#utility.yul\":663:665   */\n      0x1f\n        /* \"#utility.yul\":656:661   */\n      dup4\n        /* \"#utility.yul\":652:666   */\n      add\n        /* \"#utility.yul\":648:676   */\n      and\n        /* \"#utility.yul\":638:676   */\n      swap1\n      pop\n        /* \"#utility.yul\":580:682   */\n      swap2\n      swap1\n      pop\n      jump\t// out\n        /* \"#utility.yul\":688:868   */\n    tag_52:\n        /* \"#utility.yul\":736:813   */\n      0x4e487b7100000000000000000000000000000000000000000000000000000000\n        /* \"#utility.yul\":733:734   */\n      0x00\n        /* \"#utility.yul\":726:814   */\n      mstore\n        /* \"#utility.yul\":833:837   */\n      0x41\n        /* \"#utility.yul\":830:831   */\n      0x04\n        /* \"#utility.yul\":823:838   */\n      mstore\n        /* \"#utility.yul\":857:861   */\n      0x24\n        /* \"#utility.yul\":854:855   */\n      0x00\n        /* \"#utility.yul\":847:862   */\n      revert\n        /* \"#utility.yul\":874:1155   */\n    tag_53:\n        /* \"#utility.yul\":957:984   */\n      tag_94\n        /* \"#utility.yul\":979:983   */\n      dup3\n        /* \"#utility.yul\":957:984   */\n      tag_51\n      jump\t// in\n    tag_94:\n        /* \"#utility.yul\":949:955   */\n      dup2\n        /* \"#utility.yul\":945:985   */\n      add\n        /* \"#utility.yul\":1087:1093   */\n      dup2\n        /* \"#utility.yul\":1075:1085   */\n      dup2\n        /* \"#utility.yul\":1072:1094   */\n      lt\n        /* \"#utility.yul\":1051:1069   */\n      0xffffffffffffffff\n        /* \"#utility.yul\":1039:1049   */\n      dup3\n        /* \"#utility.yul\":1036:1070   */\n      gt\n        /* \"#utility.yul\":1033:1095   */\n      or\n        /* \"#utility.yul\":1030:1118   */\n      iszero\n      tag_95\n      jumpi\n        /* \"#utility.yul\":1098:1116   */\n      tag_96\n      tag_52\n      jump\t// in\n    tag_96:\n        /* \"#utility.yul\":1030:1118   */\n    tag_95:\n        /* \"#utility.yul\":1138:1148   */\n      dup1\n        /* \"#utility.yul\":1134:1136   */\n      0x40\n        /* \"#utility.yul\":1127:1149   */\n      mstore\n        /* \"#utility.yul\":917:1155   */\n      pop\n        /* \"#utility.yul\":874:1155   */\n      pop\n      pop\n      jump\t// out\n        /* \"#utility.yul\":1161:1290   */\n    tag_54:\n        /* \"#utility.yul\":1195:1201   */\n      0x00\n        /* \"#utility.yul\":1222:1242   */\n      tag_98\n      tag_46\n      jump\t// in\n    tag_98:\n        /* \"#utility.yul\":1212:1242   */\n      swap1\n      pop\n        /* \"#utility.yul\":1251:1284   */\n      tag_99\n        /* \"#utility.yul\":1279:1283   */\n      dup3\n        /* \"#utility.yul\":1271:1277   */\n      dup3\n        /* \"#utility.yul\":1251:1284   */\n      tag_53\n      jump\t// in\n    tag_99:\n        /* \"#utility.yul\":1161:1290   */\n      swap2\n      swap1\n      pop\n      jump\t// out\n        /* \"#utility.yul\":1296:1604   */\n    tag_55:\n        /* \"#utility.yul\":1358:1362   */\n      0x00\n        /* \"#utility.yul\":1448:1466   */\n      0xffffffffffffffff\n        /* \"#utility.yul\":1440:1446   */\n      dup3\n        /* \"#utility.yul\":1437:1467   */\n      gt\n        /* \"#utility.yul\":1434:1490   */\n      iszero\n      tag_101\n      jumpi\n        /* \"#utility.yul\":1470:1488   */\n      tag_102\n      tag_52\n      jump\t// in\n    tag_102:\n        /* \"#utility.yul\":1434:1490   */\n    tag_101:\n        /* \"#utility.yul\":1508:1537   */\n      tag_103\n        /* \"#utility.yul\":1530:1536   */\n      dup3\n        /* \"#utility.yul\":1508:1537   */\n      tag_51\n      jump\t// in\n    tag_103:\n        /* \"#utility.yul\":1500:1537   */\n      swap1\n      pop\n        /* \"#utility.yul\":1592:1596   */\n      0x20\n        /* \"#utility.yul\":1586:1590   */\n      dup2\n        /* \"#utility.yul\":1582:1597   */\n      add\n        /* \"#utility.yul\":1574:1597   */\n      swap1\n      pop\n        /* \"#utility.yul\":1296:1604   */\n      swap2\n      swap1\n      pop\n      jump\t// out\n        /* \"#utility.yul\":1610:1758   */\n    tag_56:\n        /* \"#utility.yul\":1708:1714   */\n      dup3\n        /* \"#utility.yul\":1703:1706   */\n      dup2\n        /* \"#utility.yul\":1698:1701   */\n      dup4\n        /* \"#utility.yul\":1685:1715   */\n      calldatacopy\n        /* \"#utility.yul\":1749:1750   */\n      0x00\n        /* \"#utility.yul\":1740:1746   */\n      dup4\n        /* \"#utility.yul\":1735:1738   */\n      dup4\n        /* \"#utility.yul\":1731:1747   */\n      add\n        /* \"#utility.yul\":1724:1751   */\n      mstore\n        /* \"#utility.yul\":1610:1758   */\n      pop\n      pop\n      pop\n      jump\t// out\n        /* \"#utility.yul\":1764:2189   */\n    tag_57:\n        /* \"#utility.yul\":1842:1847   */\n      0x00\n        /* \"#utility.yul\":1867:1933   */\n      tag_106\n        /* \"#utility.yul\":1883:1932   */\n      tag_107\n        /* \"#utility.yul\":1925:1931   */\n      dup5\n        /* \"#utility.yul\":1883:1932   */\n      tag_55\n      jump\t// in\n    tag_107:\n        /* \"#utility.yul\":1867:1933   */\n      tag_54\n      jump\t// in\n    tag_106:\n        /* \"#utility.yul\":1858:1933   */\n      swap1\n      pop\n        /* \"#utility.yul\":1956:1962   */\n      dup3\n        /* \"#utility.yul\":1949:1954   */\n      dup2\n        /* \"#utility.yul\":1942:1963   */\n      mstore\n        /* \"#utility.yul\":1994:1998   */\n      0x20\n        /* \"#utility.yul\":1987:1992   */\n      dup2\n        /* \"#utility.yul\":1983:1999   */\n      add\n        /* \"#utility.yul\":2032:2035   */\n      dup5\n        /* \"#utility.yul\":2023:2029   */\n      dup5\n        /* \"#utility.yul\":2018:2021   */\n      dup5\n        /* \"#utility.yul\":2014:2030   */\n      add\n        /* \"#utility.yul\":2011:2036   */\n      gt\n        /* \"#utility.yul\":2008:2120   */\n      iszero\n      tag_108\n      jumpi\n        /* \"#utility.yul\":2039:2118   */\n      tag_109\n      tag_50\n      jump\t// in\n    tag_109:\n        /* \"#utility.yul\":2008:2120   */\n    tag_108:\n        /* \"#utility.yul\":2129:2183   */\n      tag_110\n        /* \"#utility.yul\":2176:2182   */\n      dup5\n        /* \"#utility.yul\":2171:2174   */\n      dup3\n        /* \"#utility.yul\":2166:2169   */\n      dup6\n        /* \"#utility.yul\":2129:2183   */\n      tag_56\n      jump\t// in\n    tag_110:\n        /* \"#utility.yul\":1848:2189   */\n      pop\n        /* \"#utility.yul\":1764:2189   */\n      swap4\n      swap3\n      pop\n      pop\n      pop\n      jump\t// out\n        /* \"#utility.yul\":2209:2549   */\n    tag_58:\n        /* \"#utility.yul\":2265:2270   */\n      0x00\n        /* \"#utility.yul\":2314:2317   */\n      dup3\n        /* \"#utility.yul\":2307:2311   */\n      0x1f\n        /* \"#utility.yul\":2299:2305   */\n      dup4\n        /* \"#utility.yul\":2295:2312   */\n      add\n        /* \"#utility.yul\":2291:2318   */\n      slt\n        /* \"#utility.yul\":2281:2403   */\n      tag_112\n      jumpi\n        /* \"#utility.yul\":2322:2401   */\n      tag_113\n      tag_49\n      jump\t// in\n    tag_113:\n        /* \"#utility.yul\":2281:2403   */\n    tag_112:\n        /* \"#utility.yul\":2439:2445   */\n      dup2\n        /* \"#utility.yul\":2426:2446   */\n      calldataload\n        /* \"#utility.yul\":2464:2543   */\n      tag_114\n        /* \"#utility.yul\":2539:2542   */\n      dup5\n        /* \"#utility.yul\":2531:2537   */\n      dup3\n        /* \"#utility.yul\":2524:2528   */\n      0x20\n        /* \"#utility.yul\":2516:2522   */\n      dup7\n        /* \"#utility.yul\":2512:2529   */\n      add\n        /* \"#utility.yul\":2464:2543   */\n      tag_57\n      jump\t// in\n    tag_114:\n        /* \"#utility.yul\":2455:2543   */\n      swap2\n      pop\n        /* \"#utility.yul\":2271:2549   */\n      pop\n        /* \"#utility.yul\":2209:2549   */\n      swap3\n      swap2\n      pop\n      pop\n      jump\t// out\n        /* \"#utility.yul\":2555:2632   */\n    tag_59:\n        /* \"#utility.yul\":2592:2599   */\n      0x00\n        /* \"#utility.yul\":2621:2626   */\n      dup2\n        /* \"#utility.yul\":2610:2626   */\n      swap1\n      pop\n        /* \"#utility.yul\":2555:2632   */\n      swap2\n      swap1\n      pop\n      jump\t// out\n        /* \"#utility.yul\":2638:2760   */\n    tag_60:\n        /* \"#utility.yul\":2711:2735   */\n      tag_117\n        /* \"#utility.yul\":2729:2734   */\n      dup2\n        /* \"#utility.yul\":2711:2735   */\n      tag_59\n      jump\t// in\n    tag_117:\n        /* \"#utility.yul\":2704:2709   */\n      dup2\n        /* \"#utility.yul\":2701:2736   */\n      eq\n        /* \"#utility.yul\":2691:2754   */\n      tag_118\n      jumpi\n        /* \"#utility.yul\":2750:2751   */\n      0x00\n        /* \"#utility.yul\":2747:2748   */\n      0x00\n        /* \"#utility.yul\":2740:2752   */\n      revert\n        /* \"#utility.yul\":2691:2754   */\n    tag_118:\n        /* \"#utility.yul\":2638:2760   */\n      pop\n      jump\t// out\n        /* \"#utility.yul\":2766:2905   */\n    tag_61:\n        /* \"#utility.yul\":2812:2817   */\n      0x00\n        /* \"#utility.yul\":2850:2856   */\n      dup2\n        /* \"#utility.yul\":2837:2857   */\n      calldataload\n        /* \"#utility.yul\":2828:2857   */\n      swap1\n      pop\n        /* \"#utility.yul\":2866:2899   */\n      tag_120\n        /* \"#utility.yul\":2893:2898   */\n      dup2\n        /* \"#utility.yul\":2866:2899   */\n      tag_60\n      jump\t// in\n    tag_120:\n        /* \"#utility.yul\":2766:2905   */\n      swap3\n      swap2\n      pop\n      pop\n      jump\t// out\n        /* \"#utility.yul\":2911:3565   */\n    tag_8:\n        /* \"#utility.yul\":2989:2995   */\n      0x00\n        /* \"#utility.yul\":2997:3003   */\n      0x00\n        /* \"#utility.yul\":3046:3048   */\n      0x40\n        /* \"#utility.yul\":3034:3043   */\n      dup4\n        /* \"#utility.yul\":3025:3032   */\n      dup6\n        /* \"#utility.yul\":3021:3044   */\n      sub\n        /* \"#utility.yul\":3017:3049   */\n      slt\n        /* \"#utility.yul\":3014:3133   */\n      iszero\n      tag_122\n      jumpi\n        /* \"#utility.yul\":3052:3131   */\n      tag_123\n      tag_47\n      jump\t// in\n    tag_123:\n        /* \"#utility.yul\":3014:3133   */\n    tag_122:\n        /* \"#utility.yul\":3200:3201   */\n      0x00\n        /* \"#utility.yul\":3189:3198   */\n      dup4\n        /* \"#utility.yul\":3185:3202   */\n      add\n        /* \"#utility.yul\":3172:3203   */\n      calldataload\n        /* \"#utility.yul\":3230:3248   */\n      0xffffffffffffffff\n        /* \"#utility.yul\":3222:3228   */\n      dup2\n        /* \"#utility.yul\":3219:3249   */\n      gt\n        /* \"#utility.yul\":3216:3333   */\n      iszero\n      tag_124\n      jumpi\n        /* \"#utility.yul\":3252:3331   */\n      tag_125\n      tag_48\n      jump\t// in\n    tag_125:\n        /* \"#utility.yul\":3216:3333   */\n    tag_124:\n        /* \"#utility.yul\":3357:3420   */\n      tag_126\n        /* \"#utility.yul\":3412:3419   */\n      dup6\n        /* \"#utility.yul\":3403:3409   */\n      dup3\n        /* \"#utility.yul\":3392:3401   */\n      dup7\n        /* \"#utility.yul\":3388:3410   */\n      add\n        /* \"#utility.yul\":3357:3420   */\n      tag_58\n      jump\t// in\n    tag_126:\n        /* \"#utility.yul\":3347:3420   */\n      swap3\n      pop\n        /* \"#utility.yul\":3143:3430   */\n      pop\n        /* \"#utility.yul\":3469:3471   */\n      0x20\n        /* \"#utility.yul\":3495:3548   */\n      tag_127\n        /* \"#utility.yul\":3540:3547   */\n      dup6\n        /* \"#utility.yul\":3531:3537   */\n      dup3\n        /* \"#utility.yul\":3520:3529   */\n      dup7\n        /* \"#utility.yul\":3516:3538   */\n      add\n        /* \"#utility.yul\":3495:3548   */\n      tag_61\n      jump\t// in\n    tag_127:\n        /* \"#utility.yul\":3485:3548   */\n      swap2\n      pop\n        /* \"#utility.yul\":3440:3558   */\n      pop\n        /* \"#utility.yul\":2911:3565   */\n      swap3\n      pop\n      swap3\n      swap1\n      pop\n      jump\t// out\n        /* \"#utility.yul\":3571:3900   */\n    tag_12:\n        /* \"#utility.yul\":3630:3636   */\n      0x00\n        /* \"#utility.yul\":3679:3681   */\n      0x20\n        /* \"#utility.yul\":3667:3676   */\n      dup3\n        /* \"#utility.yul\":3658:3665   */\n      dup5\n        /* \"#utility.yul\":3654:3677   */\n      sub\n        /* \"#utility.yul\":3650:3682   */\n      slt\n        /* \"#utility.yul\":3647:3766   */\n      iszero\n      tag_129\n      jumpi\n        /* \"#utility.yul\":3685:3764   */\n      tag_130\n      tag_47\n      jump\t// in\n    tag_130:\n        /* \"#utility.yul\":3647:3766   */\n    tag_129:\n        /* \"#utility.yul\":3805:3806   */\n      0x00\n        /* \"#utility.yul\":3830:3883   */\n      tag_131\n        /* \"#utility.yul\":3875:3882   */\n      dup5\n        /* \"#utility.yul\":3866:3872   */\n      dup3\n        /* \"#utility.yul\":3855:3864   */\n      dup6\n        /* \"#utility.yul\":3851:3873   */\n      add\n        /* \"#utility.yul\":3830:3883   */\n      tag_61\n      jump\t// in\n    tag_131:\n        /* \"#utility.yul\":3820:3883   */\n      swap2\n      pop\n        /* \"#utility.yul\":3776:3893   */\n      pop\n        /* \"#utility.yul\":3571:3900   */\n      swap3\n      swap2\n      pop\n      pop\n      jump\t// out\n        /* \"#utility.yul\":3906:4005   */\n    tag_62:\n        /* \"#utility.yul\":3958:3964   */\n      0x00\n        /* \"#utility.yul\":3992:3997   */\n      dup2\n        /* \"#utility.yul\":3986:3998   */\n      mload\n        /* \"#utility.yul\":3976:3998   */\n      swap1\n      pop\n        /* \"#utility.yul\":3906:4005   */\n      swap2\n      swap1\n      pop\n      jump\t// out\n        /* \"#utility.yul\":4011:4180   */\n    tag_63:\n        /* \"#utility.yul\":4095:4106   */\n      0x00\n        /* \"#utility.yul\":4129:4135   */\n      dup3\n        /* \"#utility.yul\":4124:4127   */\n      dup3\n        /* \"#utility.yul\":4117:4136   */\n      mstore\n        /* \"#utility.yul\":4169:4173   */\n      0x20\n        /* \"#utility.yul\":4164:4167   */\n      dup3\n        /* \"#utility.yul\":4160:4174   */\n      add\n        /* \"#utility.yul\":4145:4174   */\n      swap1\n      pop\n        /* \"#utility.yul\":4011:4180   */\n      swap3\n      swap2\n      pop\n      pop\n      jump\t// out\n        /* \"#utility.yul\":4186:4325   */\n    tag_64:\n        /* \"#utility.yul\":4275:4281   */\n      dup3\n        /* \"#utility.yul\":4270:4273   */\n      dup2\n        /* \"#utility.yul\":4265:4268   */\n      dup4\n        /* \"#utility.yul\":4259:4282   */\n      mcopy\n        /* \"#utility.yul\":4316:4317   */\n      0x00\n        /* \"#utility.yul\":4307:4313   */\n      dup4\n        /* \"#utility.yul\":4302:4305   */\n      dup4\n        /* \"#utility.yul\":4298:4314   */\n      add\n        /* \"#utility.yul\":4291:4318   */\n      mstore\n        /* \"#utility.yul\":4186:4325   */\n      pop\n      pop\n      pop\n      jump\t// out\n        /* \"#utility.yul\":4331:4708   */\n    tag_65:\n        /* \"#utility.yul\":4419:4422   */\n      0x00\n        /* \"#utility.yul\":4447:4486   */\n      tag_136\n        /* \"#utility.yul\":4480:4485   */\n      dup3\n        /* \"#utility.yul\":4447:4486   */\n      tag_62\n      jump\t// in\n    tag_136:\n        /* \"#utility.yul\":4502:4573   */\n      tag_137\n        /* \"#utility.yul\":4566:4572   */\n      dup2\n        /* \"#utility.yul\":4561:4564   */\n      dup6\n        /* \"#utility.yul\":4502:4573   */\n      tag_63\n      jump\t// in\n    tag_137:\n        /* \"#utility.yul\":4495:4573   */\n      swap4\n      pop\n        /* \"#utility.yul\":4582:4647   */\n      tag_138\n        /* \"#utility.yul\":4640:4646   */\n      dup2\n        /* \"#utility.yul\":4635:4638   */\n      dup6\n        /* \"#utility.yul\":4628:4632   */\n      0x20\n        /* \"#utility.yul\":4621:4626   */\n      dup7\n        /* \"#utility.yul\":4617:4633   */\n      add\n        /* \"#utility.yul\":4582:4647   */\n      tag_64\n      jump\t// in\n    tag_138:\n        /* \"#utility.yul\":4672:4701   */\n      tag_139\n        /* \"#utility.yul\":4694:4700   */\n      dup2\n        /* \"#utility.yul\":4672:4701   */\n      tag_51\n      jump\t// in\n    tag_139:\n        /* \"#utility.yul\":4667:4670   */\n      dup5\n        /* \"#utility.yul\":4663:4702   */\n      add\n        /* \"#utility.yul\":4656:4702   */\n      swap2\n      pop\n        /* \"#utility.yul\":4423:4708   */\n      pop\n        /* \"#utility.yul\":4331:4708   */\n      swap3\n      swap2\n      pop\n      pop\n      jump\t// out\n        /* \"#utility.yul\":4714:5027   */\n    tag_15:\n        /* \"#utility.yul\":4827:4831   */\n      0x00\n        /* \"#utility.yul\":4865:4867   */\n      0x20\n        /* \"#utility.yul\":4854:4863   */\n      dup3\n        /* \"#utility.yul\":4850:4868   */\n      add\n        /* \"#utility.yul\":4842:4868   */\n      swap1\n      pop\n        /* \"#utility.yul\":4914:4923   */\n      dup2\n        /* \"#utility.yul\":4908:4912   */\n      dup2\n        /* \"#utility.yul\":4904:4924   */\n      sub\n        /* \"#utility.yul\":4900:4901   */\n      0x00\n        /* \"#utility.yul\":4889:4898   */\n      dup4\n        /* \"#utility.yul\":4885:4902   */\n      add\n        /* \"#utility.yul\":4878:4925   */\n      mstore\n        /* \"#utility.yul\":4942:5020   */\n      tag_141\n        /* \"#utility.yul\":5015:5019   */\n      dup2\n        /* \"#utility.yul\":5006:5012   */\n      dup5\n        /* \"#utility.yul\":4942:5020   */\n      tag_65\n      jump\t// in\n    tag_141:\n        /* \"#utility.yul\":4934:5020   */\n      swap1\n      pop\n        /* \"#utility.yul\":4714:5027   */\n      swap3\n      swap2\n      pop\n      pop\n      jump\t// out\n        /* \"#utility.yul\":5033:5542   */\n    tag_18:\n        /* \"#utility.yul\":5102:5108   */\n      0x00\n        /* \"#utility.yul\":5151:5153   */\n      0x20\n        /* \"#utility.yul\":5139:5148   */\n      dup3\n        /* \"#utility.yul\":5130:5137   */\n      dup5\n        /* \"#utility.yul\":5126:5149   */\n      sub\n        /* \"#utility.yul\":5122:5154   */\n      slt\n        /* \"#utility.yul\":5119:5238   */\n      iszero\n      tag_143\n      jumpi\n        /* \"#utility.yul\":5157:5236   */\n      tag_144\n      tag_47\n      jump\t// in\n    tag_144:\n        /* \"#utility.yul\":5119:5238   */\n    tag_143:\n        /* \"#utility.yul\":5305:5306   */\n      0x00\n        /* \"#utility.yul\":5294:5303   */\n      dup3\n        /* \"#utility.yul\":5290:5307   */\n      add\n        /* \"#utility.yul\":5277:5308   */\n      calldataload\n        /* \"#utility.yul\":5335:5353   */\n      0xffffffffffffffff\n        /* \"#utility.yul\":5327:5333   */\n      dup2\n        /* \"#utility.yul\":5324:5354   */\n      gt\n        /* \"#utility.yul\":5321:5438   */\n      iszero\n      tag_145\n      jumpi\n        /* \"#utility.yul\":5357:5436   */\n      tag_146\n      tag_48\n      jump\t// in\n    tag_146:\n        /* \"#utility.yul\":5321:5438   */\n    tag_145:\n        /* \"#utility.yul\":5462:5525   */\n      tag_147\n        /* \"#utility.yul\":5517:5524   */\n      dup5\n        /* \"#utility.yul\":5508:5514   */\n      dup3\n        /* \"#utility.yul\":5497:5506   */\n      dup6\n        /* \"#utility.yul\":5493:5515   */\n      add\n        /* \"#utility.yul\":5462:5525   */\n      tag_58\n      jump\t// in\n    tag_147:\n        /* \"#utility.yul\":5452:5525   */\n      swap2\n      pop\n        /* \"#utility.yul\":5248:5535   */\n      pop\n        /* \"#utility.yul\":5033:5542   */\n      swap3\n      swap2\n      pop\n      pop\n      jump\t// out\n        /* \"#utility.yul\":5548:5728   */\n    tag_66:\n        /* \"#utility.yul\":5596:5673   */\n      0x4e487b7100000000000000000000000000000000000000000000000000000000\n        /* \"#utility.yul\":5593:5594   */\n      0x00\n        /* \"#utility.yul\":5586:5674   */\n      mstore\n        /* \"#utility.yul\":5693:5697   */\n      0x22\n        /* \"#utility.yul\":5690:5691   */\n      0x04\n        /* \"#utility.yul\":5683:5698   */\n      mstore\n        /* \"#utility.yul\":5717:5721   */\n      0x24\n        /* \"#utility.yul\":5714:5715   */\n      0x00\n        /* \"#utility.yul\":5707:5722   */\n      revert\n        /* \"#utility.yul\":5734:6054   */\n    tag_29:\n        /* \"#utility.yul\":5778:5784   */\n      0x00\n        /* \"#utility.yul\":5815:5816   */\n      0x02\n        /* \"#utility.yul\":5809:5813   */\n      dup3\n        /* \"#utility.yul\":5805:5817   */\n      div\n        /* \"#utility.yul\":5795:5817   */\n      swap1\n      pop\n        /* \"#utility.yul\":5862:5863   */\n      0x01\n        /* \"#utility.yul\":5856:5860   */\n      dup3\n        /* \"#utility.yul\":5852:5864   */\n      and\n        /* \"#utility.yul\":5883:5901   */\n      dup1\n        /* \"#utility.yul\":5873:5954   */\n      tag_150\n      jumpi\n        /* \"#utility.yul\":5939:5943   */\n      0x7f\n        /* \"#utility.yul\":5931:5937   */\n      dup3\n        /* \"#utility.yul\":5927:5944   */\n      and\n        /* \"#utility.yul\":5917:5944   */\n      swap2\n      pop\n        /* \"#utility.yul\":5873:5954   */\n    tag_150:\n        /* \"#utility.yul\":6001:6003   */\n      0x20\n        /* \"#utility.yul\":5993:5999   */\n      dup3\n        /* \"#utility.yul\":5990:6004   */\n      lt\n        /* \"#utility.yul\":5970:5988   */\n      dup2\n        /* \"#utility.yul\":5967:6005   */\n      sub\n        /* \"#utility.yul\":5964:6048   */\n      tag_151\n      jumpi\n        /* \"#utility.yul\":6020:6038   */\n      tag_152\n      tag_66\n      jump\t// in\n    tag_152:\n        /* \"#utility.yul\":5964:6048   */\n    tag_151:\n        /* \"#utility.yul\":5785:6054   */\n      pop\n        /* \"#utility.yul\":5734:6054   */\n      swap2\n      swap1\n      pop\n      jump\t// out\n        /* \"#utility.yul\":6060:6201   */\n    tag_67:\n        /* \"#utility.yul\":6109:6113   */\n      0x00\n        /* \"#utility.yul\":6132:6135   */\n      dup2\n        /* \"#utility.yul\":6124:6135   */\n      swap1\n      pop\n        /* \"#utility.yul\":6155:6158   */\n      dup2\n        /* \"#utility.yul\":6152:6153   */\n      0x00\n        /* \"#utility.yul\":6145:6159   */\n      mstore\n        /* \"#utility.yul\":6189:6193   */\n      0x20\n        /* \"#utility.yul\":6186:6187   */\n      0x00\n        /* \"#utility.yul\":6176:6194   */\n      keccak256\n        /* \"#utility.yul\":6168:6194   */\n      swap1\n      pop\n        /* \"#utility.yul\":6060:6201   */\n      swap2\n      swap1\n      pop\n      jump\t// out\n        /* \"#utility.yul\":6207:6300   */\n    tag_68:\n        /* \"#utility.yul\":6244:6250   */\n      0x00\n        /* \"#utility.yul\":6291:6293   */\n      0x20\n        /* \"#utility.yul\":6286:6288   */\n      0x1f\n        /* \"#utility.yul\":6279:6284   */\n      dup4\n        /* \"#utility.yul\":6275:6289   */\n      add\n        /* \"#utility.yul\":6271:6294   */\n      div\n        /* \"#utility.yul\":6261:6294   */\n      swap1\n      pop\n        /* \"#utility.yul\":6207:6300   */\n      swap2\n      swap1\n      pop\n      jump\t// out\n        /* \"#utility.yul\":6306:6413   */\n    tag_69:\n        /* \"#utility.yul\":6350:6358   */\n      0x00\n        /* \"#utility.yul\":6400:6405   */\n      dup3\n        /* \"#utility.yul\":6394:6398   */\n      dup3\n        /* \"#utility.yul\":6390:6406   */\n      shl\n        /* \"#utility.yul\":6369:6406   */\n      swap1\n      pop\n        /* \"#utility.yul\":6306:6413   */\n      swap3\n      swap2\n      pop\n      pop\n      jump\t// out\n        /* \"#utility.yul\":6419:6812   */\n    tag_70:\n        /* \"#utility.yul\":6488:6494   */\n      0x00\n        /* \"#utility.yul\":6538:6539   */\n      0x08\n        /* \"#utility.yul\":6526:6536   */\n      dup4\n        /* \"#utility.yul\":6522:6540   */\n      mul\n        /* \"#utility.yul\":6561:6658   */\n      tag_157\n        /* \"#utility.yul\":6591:6657   */\n      0xffffffffffffffffffffffffffffffffffffffffffffffffffffffffffffffff\n        /* \"#utility.yul\":6580:6589   */\n      dup3\n        /* \"#utility.yul\":6561:6658   */\n      tag_69\n      jump\t// in\n    tag_157:\n        /* \"#utility.yul\":6679:6718   */\n      tag_158\n        /* \"#utility.yul\":6709:6717   */\n      dup7\n        /* \"#utility.yul\":6698:6707   */\n      dup4\n        /* \"#utility.yul\":6679:6718   */\n      tag_69\n      jump\t// in\n    tag_158:\n        /* \"#utility.yul\":6667:6718   */\n      swap6\n      pop\n        /* \"#utility.yul\":6751:6755   */\n      dup1\n        /* \"#utility.yul\":6747:6756   */\n      not\n        /* \"#utility.yul\":6740:6745   */\n      dup5\n        /* \"#utility.yul\":6736:6757   */\n      and\n        /* \"#utility.yul\":6727:6757   */\n      swap4\n      pop\n        /* \"#utility.yul\":6800:6804   */\n      dup1\n        /* \"#utility.yul\":6790:6798   */\n      dup7\n        /* \"#utility.yul\":6786:6805   */\n      and\n        /* \"#utility.yul\":6779:6784   */\n      dup5\n        /* \"#utility.yul\":6776:6806   */\n      or\n        /* \"#utility.yul\":6766:6806   */\n      swap3\n      pop\n        /* \"#utility.yul\":6495:6812   */\n      pop\n      pop\n        /* \"#utility.yul\":6419:6812   */\n      swap4\n      swap3\n      pop\n      pop\n      pop\n      jump\t// out\n        /* \"#utility.yul\":6818:6878   */\n    tag_71:\n        /* \"#utility.yul\":6846:6849   */\n      0x00\n        /* \"#utility.yul\":6867:6872   */\n      dup2\n        /* \"#utility.yul\":6860:6872   */\n      swap1\n      pop\n        /* \"#utility.yul\":6818:6878   */\n      swap2\n      swap1\n      pop\n      jump\t// out\n        /* \"#utility.yul\":6884:7026   */\n    tag_72:\n        /* \"#utility.yul\":6934:6943   */\n      0x00\n        /* \"#utility.yul\":6967:7020   */\n      tag_161\n        /* \"#utility.yul\":6985:7019   */\n      tag_162\n        /* \"#utility.yul\":6994:7018   */\n      tag_163\n        /* \"#utility.yul\":7012:7017   */\n      dup5\n        /* \"#utility.yul\":6994:7018   */\n      tag_59\n      jump\t// in\n    tag_163:\n        /* \"#utility.yul\":6985:7019   */\n      tag_71\n      jump\t// in\n    tag_162:\n        /* \"#utility.yul\":6967:7020   */\n      tag_59\n      jump\t// in\n    tag_161:\n        /* \"#utility.yul\":6954:7020   */\n      swap1\n      pop\n        /* \"#utility.yul\":6884:7026   */\n      swap2\n      swap1\n      pop\n      jump\t// out\n        /* \"#utility.yul\":7032:7107   */\n    tag_73:\n        /* \"#utility.yul\":7075:7078   */\n      0x00\n        /* \"#utility.yul\":7096:7101   */\n      dup2\n        /* \"#utility.yul\":7089:7101   */\n      swap1\n      pop\n        /* \"#utility.yul\":7032:7107   */\n      swap2\n      swap1\n      pop\n      jump\t// out\n        /* \"#utility.yul\":7113:7382   */\n    tag_74:\n        /* \"#utility.yul\":7223:7262   */\n      tag_166\n        /* \"#utility.yul\":7254:7261   */\n      dup4\n        /* \"#utility.yul\":7223:7262   */\n      tag_72\n      jump\t// in\n    tag_166:\n        /* \"#utility.yul\":7284:7375   */\n      tag_167\n        /* \"#utility.yul\":7333:7374   */\n      tag_168\n        /* \"#utility.yul\":7357:7373   */\n      dup3\n        /* \"#utility.yul\":7333:7374   */\n      tag_73\n      jump\t// in\n    tag_168:\n        /* \"#utility.yul\":7325:7331   */\n      dup5\n        /* \"#utility.yul\":7318:7322   */\n      dup5\n        /* \"#utility.yul\":7312:7323   */\n      sload\n        /* \"#utility.yul\":7284:7375   */\n      tag_70\n      jump\t// in\n    tag_167:\n        /* \"#utility.yul\":7278:7282   */\n      dup3\n        /* \"#utility.yul\":7271:7376   */\n      sstore\n        /* \"#utility.yul\":7189:7382   */\n      pop\n        /* \"#utility.yul\":7113:7382   */\n      pop\n      pop\n      pop\n      jump\t// out\n        /* \"#utility.yul\":7388:7461   */\n    tag_75:\n        /* \"#utility.yul\":7433:7436   */\n      0x00\n        /* \"#utility.yul\":7454:7455   */\n      0x00\n        /* \"#utility.yul\":7447:7455   */\n      swap1\n      pop\n        /* \"#utility.yul\":7388:7461   */\n      swap1\n      jump\t// out\n        /* \"#utility.yul\":7467:7656   */\n    tag_76:\n        /* \"#utility.yul\":7544:7576   */\n      tag_171\n      tag_75\n      jump\t// in\n    tag_171:\n        /* \"#utility.yul\":7585:7650   */\n      tag_172\n        /* \"#utility.yul\":7643:7649   */\n      dup2\n        /* \"#utility.yul\":7635:7641   */\n      dup5\n        /* \"#utility.yul\":7629:7633   */\n      dup5\n        /* \"#utility.yul\":7585:7650   */\n      tag_74\n      jump\t// in\n    tag_172:\n        /* \"#utility.yul\":7520:7656   */\n      pop\n        /* \"#utility.yul\":7467:7656   */\n      pop\n      pop\n      jump\t// out\n        /* \"#utility.yul\":7662:7848   */\n    tag_77:\n        /* \"#utility.yul\":7722:7842   */\n    tag_174:\n        /* \"#utility.yul\":7739:7742   */\n      dup2\n        /* \"#utility.yul\":7732:7737   */\n      dup2\n        /* \"#utility.yul\":7729:7743   */\n      lt\n        /* \"#utility.yul\":7722:7842   */\n      iszero\n      tag_176\n      jumpi\n        /* \"#utility.yul\":7793:7832   */\n      tag_177\n        /* \"#utility.yul\":7830:7831   */\n      0x00\n        /* \"#utility.yul\":7823:7828   */\n      dup3\n        /* \"#utility.yul\":7793:7832   */\n      tag_76\n      jump\t// in\n    tag_177:\n        /* \"#utility.yul\":7766:7767   */\n      0x01\n        /* \"#utility.yul\":7759:7764   */\n      dup2\n        /* \"#utility.yul\":7755:7768   */\n      add\n        /* \"#utility.yul\":7746:7768   */\n      swap1\n      pop\n        /* \"#utility.yul\":7722:7842   */\n      jump(tag_174)\n    tag_176:\n        /* \"#utility.yul\":7662:7848   */\n      pop\n      pop\n      jump\t// out\n        /* \"#utility.yul\":7854:8397   */\n    tag_78:\n        /* \"#utility.yul\":7955:7957   */\n      0x1f\n        /* \"#utility.yul\":7950:7953   */\n      dup3\n        /* \"#utility.yul\":7947:7958   */\n      gt\n        /* \"#utility.yul\":7944:8390   */\n      iszero\n      tag_179\n      jumpi\n        /* \"#utility.yul\":7989:8027   */\n      tag_180\n        /* \"#utility.yul\":8021:8026   */\n      dup2\n        /* \"#utility.yul\":7989:8027   */\n      tag_67\n      jump\t// in\n    tag_180:\n        /* \"#utility.yul\":8073:8102   */\n      tag_181\n        /* \"#utility.yul\":8091:8101   */\n      dup5\n        /* \"#utility.yul\":8073:8102   */\n      tag_68\n      jump\t// in\n    tag_181:\n        /* \"#utility.yul\":8063:8071   */\n      dup2\n        /* \"#utility.yul\":8059:8103   */\n      add\n        /* \"#utility.yul\":8256:8258   */\n      0x20\n        /* \"#utility.yul\":8244:8254   */\n      dup6\n        /* \"#utility.yul\":8241:8259   */\n      lt\n        /* \"#utility.yul\":8238:8287   */\n      iszero\n      tag_182\n      jumpi\n        /* \"#utility.yul\":8277:8285   */\n      dup2\n        /* \"#utility.yul\":8262:8285   */\n      swap1\n      pop\n        /* \"#utility.yul\":8238:8287   */\n    tag_182:\n        /* \"#utility.yul\":8300:8380   */\n      tag_183\n        /* \"#utility.yul\":8356:8378   */\n      tag_184\n        /* \"#utility.yul\":8374:8377   */\n      dup6\n        /* \"#utility.yul\":8356:8378   */\n      tag_68\n      jump\t// in\n    tag_184:\n        /* \"#utility.yul\":8346:8354   */\n      dup4\n        /* \"#utility.yul\":8342:8379   */\n      add\n        /* \"#utility.yul\":8329:8340   */\n      dup3\n        /* \"#utility.yul\":8300:8380   */\n      tag_77\n      jump\t// in\n    tag_183:\n        /* \"#utility.yul\":7959:8390   */\n      pop\n      pop\n        /* \"#utility.yul\":7944:8390   */\n    tag_179:\n        /* \"#utility.yul\":7854:8397   */\n      pop\n      pop\n      pop\n      jump\t// out\n        /* \"#utility.yul\":8403:8520   */\n    tag_79:\n        /* \"#utility.yul\":8457:8465   */\n      0x00\n        /* \"#utility.yul\":8507:8512   */\n      dup3\n        /* \"#utility.yul\":8501:8505   */\n      dup3\n        /* \"#utility.yul\":8497:8513   */\n      shr\n        /* \"#utility.yul\":8476:8513   */\n      swap1\n      pop\n        /* \"#utility.yul\":8403:8520   */\n      swap3\n      swap2\n      pop\n      pop\n      jump\t// out\n        /* \"#utility.yul\":8526:8695   */\n    tag_80:\n        /* \"#utility.yul\":8570:8576   */\n      0x00\n        /* \"#utility.yul\":8603:8654   */\n      tag_187\n        /* \"#utility.yul\":8651:8652   */\n      0x00\n        /* \"#utility.yul\":8647:8653   */\n      not\n        /* \"#utility.yul\":8639:8644   */\n      dup5\n        /* \"#utility.yul\":8636:8637   */\n      0x08\n        /* \"#utility.yul\":8632:8645   */\n      mul\n        /* \"#utility.yul\":8603:8654   */\n      tag_79\n      jump\t// in\n    tag_187:\n        /* \"#utility.yul\":8599:8655   */\n      not\n        /* \"#utility.yul\":8684:8688   */\n      dup1\n        /* \"#utility.yul\":8678:8682   */\n      dup4\n        /* \"#utility.yul\":8674:8689   */\n      and\n        /* \"#utility.yul\":8664:8689   */\n      swap2\n      pop\n        /* \"#utility.yul\":8577:8695   */\n      pop\n        /* \"#utility.yul\":8526:8695   */\n      swap3\n      swap2\n      pop\n      pop\n      jump\t// out\n        /* \"#utility.yul\":8700:8995   */\n    tag_81:\n        /* \"#utility.yul\":8776:8780   */\n      0x00\n        /* \"#utility.yul\":8922:8951   */\n      tag_189\n        /* \"#utility.yul\":8947:8950   */\n      dup4\n        /* \"#utility.yul\":8941:8945   */\n      dup4\n        /* \"#utility.yul\":8922:8951   */\n      tag_80\n      jump\t// in\n    tag_189:\n        /* \"#utility.yul\":8914:8951   */\n      swap2\n      pop\n        /* \"#utility.yul\":8984:8987   */\n      dup3\n        /* \"#utility.yul\":8981:8982   */\n      0x02\n        /* \"#utility.yul\":8977:8988   */\n      mul\n        /* \"#utility.yul\":8971:8975   */\n      dup3\n        /* \"#utility.yul\":8968:8989   */\n      or\n        /* \"#utility.yul\":8960:8989   */\n      swap1\n      pop\n        /* \"#utility.yul\":8700:8995   */\n      swap3\n      swap2\n      pop\n      pop\n      jump\t// out\n        /* \"#utility.yul\":9000:10395   */\n    tag_22:\n        /* \"#utility.yul\":9117:9154   */\n      tag_191\n        /* \"#utility.yul\":9150:9153   */\n      dup3\n        /* \"#utility.yul\":9117:9154   */\n      tag_62\n      jump\t// in\n    tag_191:\n        /* \"#utility.yul\":9219:9237   */\n      0xffffffffffffffff\n        /* \"#utility.yul\":9211:9217   */\n      dup2\n        /* \"#utility.yul\":9208:9238   */\n      gt\n        /* \"#utility.yul\":9205:9261   */\n      iszero\n      tag_192\n      jumpi\n        /* \"#utility.yul\":9241:9259   */\n      tag_193\n      tag_52\n      jump\t// in\n    tag_193:\n        /* \"#utility.yul\":9205:9261   */\n    tag_192:\n        /* \"#utility.yul\":9285:9323   */\n      tag_194\n        /* \"#utility.yul\":9317:9321   */\n      dup3\n        /* \"#utility.yul\":9311:9322   */\n      sload\n        /* \"#utility.yul\":9285:9323   */\n      tag_29\n      jump\t// in\n    tag_194:\n        /* \"#utility.yul\":9370:9437   */\n      tag_195\n        /* \"#utility.yul\":9430:9436   */\n      dup3\n        /* \"#utility.yul\":9422:9428   */\n      dup3\n        /* \"#utility.yul\":9416:9420   */\n      dup6\n        /* \"#utility.yul\":9370:9437   */\n      tag_78\n      jump\t// in\n    tag_195:\n        /* \"#utility.yul\":9464:9465   */\n      0x00\n        /* \"#utility.yul\":9488:9492   */\n      0x20\n        /* \"#utility.yul\":9475:9492   */\n      swap1\n      pop\n        /* \"#utility.yul\":9520:9522   */\n      0x1f\n        /* \"#utility.yul\":9512:9518   */\n      dup4\n        /* \"#utility.yul\":9509:9523   */\n      gt\n        /* \"#utility.yul\":9537:9538   */\n      0x01\n        /* \"#utility.yul\":9532:10150   */\n      dup2\n      eq\n      tag_197\n      jumpi\n        /* \"#utility.yul\":10194:10195   */\n      0x00\n        /* \"#utility.yul\":10211:10217   */\n      dup5\n        /* \"#utility.yul\":10208:10285   */\n      iszero\n      tag_198\n      jumpi\n        /* \"#utility.yul\":10260:10269   */\n      dup3\n        /* \"#utility.yul\":10255:10258   */\n      dup8\n        /* \"#utility.yul\":10251:10270   */\n      add\n        /* \"#utility.yul\":10245:10271   */\n      mload\n        /* \"#utility.yul\":10236:10271   */\n      swap1\n      pop\n        /* \"#utility.yul\":10208:10285   */\n    tag_198:\n        /* \"#utility.yul\":10311:10378   */\n      tag_199\n        /* \"#utility.yul\":10371:10377   */\n      dup6\n        /* \"#utility.yul\":10364:10369   */\n      dup3\n        /* \"#utility.yul\":10311:10378   */\n      tag_81\n      jump\t// in\n    tag_199:\n        /* \"#utility.yul\":10305:10309   */\n      dup7\n        /* \"#utility.yul\":10298:10379   */\n      sstore\n        /* \"#utility.yul\":10167:10389   */\n      pop\n        /* \"#utility.yul\":9502:10389   */\n      jump(tag_196)\n        /* \"#utility.yul\":9532:10150   */\n    tag_197:\n        /* \"#utility.yul\":9584:9588   */\n      0x1f\n        /* \"#utility.yul\":9580:9589   */\n      not\n        /* \"#utility.yul\":9572:9578   */\n      dup5\n        /* \"#utility.yul\":9568:9590   */\n      and\n        /* \"#utility.yul\":9618:9655   */\n      tag_200\n        /* \"#utility.yul\":9650:9654   */\n      dup7\n        /* \"#utility.yul\":9618:9655   */\n      tag_67\n      jump\t// in\n    tag_200:\n        /* \"#utility.yul\":9677:9678   */\n      0x00\n        /* \"#utility.yul\":9691:9899   */\n    tag_201:\n        /* \"#utility.yul\":9705:9712   */\n      dup3\n        /* \"#utility.yul\":9702:9703   */\n      dup2\n        /* \"#utility.yul\":9699:9713   */\n      lt\n        /* \"#utility.yul\":9691:9899   */\n      iszero\n      tag_203\n      jumpi\n        /* \"#utility.yul\":9784:9793   */\n      dup5\n        /* \"#utility.yul\":9779:9782   */\n      dup10\n        /* \"#utility.yul\":9775:9794   */\n      add\n        /* \"#utility.yul\":9769:9795   */\n      mload\n        /* \"#utility.yul\":9761:9767   */\n      dup3\n        /* \"#utility.yul\":9754:9796   */\n      sstore\n        /* \"#utility.yul\":9835:9836   */\n      0x01\n        /* \"#utility.yul\":9827:9833   */\n      dup3\n        /* \"#utility.yul\":9823:9837   */\n      add\n        /* \"#utility.yul\":9813:9837   */\n      swap2\n      pop\n        /* \"#utility.yul\":9882:9884   */\n      0x20\n        /* \"#utility.yul\":9871:9880   */\n      dup6\n        /* \"#utility.yul\":9867:9885   */\n      add\n        /* \"#utility.yul\":9854:9885   */\n      swap5\n      pop\n        /* \"#utility.yul\":9728:9732   */\n      0x20\n        /* \"#utility.yul\":9725:9726   */\n      dup2\n        /* \"#utility.yul\":9721:9733   */\n      add\n        /* \"#utility.yul\":9716:9733   */\n      swap1\n      pop\n        /* \"#utility.yul\":9691:9899   */\n      jump(tag_201)\n    tag_203:\n        /* \"#utility.yul\":9927:9933   */\n      dup7\n        /* \"#utility.yul\":9918:9925   */\n      dup4\n        /* \"#utility.yul\":9915:9934   */\n      lt\n        /* \"#utility.yul\":9912:10091   */\n      iszero\n      tag_204\n      jumpi\n        /* \"#utility.yul\":9985:9994   */\n      dup5\n        /* \"#utility.yul\":9980:9983   */\n      dup10\n        /* \"#utility.yul\":9976:9995   */\n      add\n        /* \"#utility.yul\":9970:9996   */\n      mload\n        /* \"#utility.yul\":10028:10076   */\n      tag_205\n        /* \"#utility.yul\":10070:10074   */\n      0x1f\n        /* \"#utility.yul\":10062:10068   */\n      dup10\n        /* \"#utility.yul\":10058:10075   */\n      and\n        /* \"#utility.yul\":10047:10056   */\n      dup3\n        /* \"#utility.yul\":10028:10076   */\n      tag_80\n      jump\t// in\n    tag_205:\n        /* \"#utility.yul\":10020:10026   */\n      dup4\n        /* \"#utility.yul\":10013:10077   */\n      sstore\n        /* \"#utility.yul\":9935:10091   */\n      pop\n        /* \"#utility.yul\":9912:10091   */\n    tag_204:\n        /* \"#utility.yul\":10137:10138   */\n      0x01\n        /* \"#utility.yul\":10133:10134   */\n      0x02\n        /* \"#utility.yul\":10125:10131   */\n      dup9\n        /* \"#utility.yul\":10121:10135   */\n      mul\n        /* \"#utility.yul\":10117:10139   */\n      add\n        /* \"#utility.yul\":10111:10115   */\n      dup9\n        /* \"#utility.yul\":10104:10140   */\n      sstore\n        /* \"#utility.yul\":9539:10150   */\n      pop\n      pop\n      pop\n        /* \"#utility.yul\":9502:10389   */\n    tag_196:\n      pop\n        /* \"#utility.yul\":9092:10395   */\n      pop\n      pop\n      pop\n        /* \"#utility.yul\":9000:10395   */\n      pop\n      pop\n      jump\t// out\n        /* \"#utility.yul\":10401:10549   */\n    tag_82:\n        /* \"#utility.yul\":10503:10514   */\n      0x00\n        /* \"#utility.yul\":10540:10543   */\n      dup2\n        /* \"#utility.yul\":10525:10543   */\n      swap1\n      pop\n        /* \"#utility.yul\":10401:10549   */\n      swap3\n      swap2\n      pop\n      pop\n      jump\t// out\n        /* \"#utility.yul\":10555:10945   */\n    tag_83:\n        /* \"#utility.yul\":10661:10664   */\n      0x00\n        /* \"#utility.yul\":10689:10728   */\n      tag_208\n        /* \"#utility.yul\":10722:10727   */\n      dup3\n        /* \"#utility.yul\":10689:10728   */\n      tag_62\n      jump\t// in\n    tag_208:\n        /* \"#utility.yul\":10744:10833   */\n      tag_209\n        /* \"#utility.yul\":10826:10832   */\n      dup2\n        /* \"#utility.yul\":10821:10824   */\n      dup6\n        /* \"#utility.yul\":10744:10833   */\n      tag_82\n      jump\t// in\n    tag_209:\n        /* \"#utility.yul\":10737:10833   */\n      swap4\n      pop\n        /* \"#utility.yul\":10842:10907   */\n      tag_210\n        /* \"#utility.yul\":10900:10906   */\n      dup2\n        /* \"#utility.yul\":10895:10898   */\n      dup6\n        /* \"#utility.yul\":10888:10892   */\n      0x20\n        /* \"#utility.yul\":10881:10886   */\n      dup7\n        /* \"#utility.yul\":10877:10893   */\n      add\n        /* \"#utility.yul\":10842:10907   */\n      tag_64\n      jump\t// in\n    tag_210:\n        /* \"#utility.yul\":10932:10938   */\n      dup1\n        /* \"#utility.yul\":10927:10930   */\n      dup5\n        /* \"#utility.yul\":10923:10939   */\n      add\n        /* \"#utility.yul\":10916:10939   */\n      swap2\n      pop\n        /* \"#utility.yul\":10665:10945   */\n      pop\n        /* \"#utility.yul\":10555:10945   */\n      swap3\n      swap2\n      pop\n      pop\n      jump\t// out\n        /* \"#utility.yul\":10951:11132   */\n    tag_84:\n        /* \"#utility.yul\":11119:11125   */\n      0x204c4a5700000000000000000000000000000000000000000000000000000000\n        /* \"#utility.yul\":11114:11117   */\n      dup2\n        /* \"#utility.yul\":11107:11126   */\n      mstore\n        /* \"#utility.yul\":10951:11132   */\n      pop\n      jump\t// out\n        /* \"#utility.yul\":11138:11677   */\n    tag_45:\n        /* \"#utility.yul\":11360:11363   */\n      0x00\n        /* \"#utility.yul\":11382:11477   */\n      tag_213\n        /* \"#utility.yul\":11473:11476   */\n      dup3\n        /* \"#utility.yul\":11464:11470   */\n      dup5\n        /* \"#utility.yul\":11382:11477   */\n      tag_83\n      jump\t// in\n    tag_213:\n        /* \"#utility.yul\":11375:11477   */\n      swap2\n      pop\n        /* \"#utility.yul\":11487:11624   */\n      tag_214\n        /* \"#utility.yul\":11620:11623   */\n      dup3\n        /* \"#utility.yul\":11487:11624   */\n      tag_84\n      jump\t// in\n    tag_214:\n        /* \"#utility.yul\":11649:11650   */\n      0x04\n        /* \"#utility.yul\":11644:11647   */\n      dup3\n        /* \"#utility.yul\":11640:11651   */\n      add\n        /* \"#utility.yul\":11633:11651   */\n      swap2\n      pop\n        /* \"#utility.yul\":11668:11671   */\n      dup2\n        /* \"#utility.yul\":11661:11671   */\n      swap1\n      pop\n        /* \"#utility.yul\":11138:11677   */\n      swap3\n      swap2\n      pop\n      pop\n      jump\t// out\n\n    auxdata: 0xa26469706673582212209b8094a6d7683bbdeeeeb10221ce4e0c7e813141b4bd3f7fef08b5ae1e0338c364736f6c634300081e0033\n}\n",
				"bytecode": {
					"linkReferences": {},
					"object": "60806040526040518060400160405280600b81526020017f48656c6c6f20576f726c640000000000000000000000000000000000000000008152505f90816100479190610296565b50348015610053575f5ffd5b50610365565b5f81519050919050565b7f4e487b71000000000000000000000000000000000000000000000000000000005f52604160045260245ffd5b7f4e487b71000000000000000000000000000000000000000000000000000000005f52602260045260245ffd5b5f60028204905060018216806100d457607f821691505b6020821081036100e7576100e6610090565b5b50919050565b5f819050815f5260205f209050919050565b5f6020601f8301049050919050565b5f82821b905092915050565b5f600883026101497fffffffffffffffffffffffffffffffffffffffffffffffffffffffffffffffff8261010e565b610153868361010e565b95508019841693508086168417925050509392505050565b5f819050919050565b5f819050919050565b5f61019761019261018d8461016b565b610174565b61016b565b9050919050565b5f819050919050565b6101b08361017d565b6101c46101bc8261019e565b84845461011a565b825550505050565b5f5f905090565b6101db6101cc565b6101e68184846101a7565b505050565b5b81811015610209576101fe5f826101d3565b6001810190506101ec565b5050565b601f82111561024e5761021f816100ed565b610228846100ff565b81016020851015610237578190505b61024b610243856100ff565b8301826101eb565b50505b505050565b5f82821c905092915050565b5f61026e5f1984600802610253565b1980831691505092915050565b5f610286838361025f565b9150826002028217905092915050565b61029f82610059565b67ffffffffffffffff8111156102b8576102b7610063565b5b6102c282546100bd565b6102cd82828561020d565b5f60209050601f8311600181146102fe575f84156102ec578287015190505b6102f6858261027b565b86555061035d565b601f19841661030c866100ed565b5f5b828110156103335784890151825560018201915060208501945060208101905061030e565b86831015610350578489015161034c601f89168261025f565b8355505b6001600288020188555050505b505050505050565b610a24806103725f395ff3fe608060405234801561000f575f5ffd5b506004361061003f575f3560e01c8063235167931461004357806342257b311461005f578063fe79ec201461008f575b5f5ffd5b61005d60048036038101906100589190610551565b6100ab565b005b610079600480360381019061007491906105ab565b6101ec565b6040516100869190610636565b60405180910390f35b6100a960048036038101906100a49190610656565b610396565b005b5f60405180606001604052808381526020018481526020013373ffffffffffffffffffffffffffffffffffffffff1681525090508060025f8481526020019081526020015f205f820151815f0155602082015181600101908161010e919061089a565b506040820151816002015f6101000a81548173ffffffffffffffffffffffffffffffffffffffff021916908373ffffffffffffffffffffffffffffffffffffffff160217905550905050600181908060018154018082558091505060019003905f5260205f2090600302015f909190919091505f820151815f0155602082015181600101908161019e919061089a565b506040820151816002015f6101000a81548173ffffffffffffffffffffffffffffffffffffffff021916908373ffffffffffffffffffffffffffffffffffffffff1602179055505050505050565b60605f73ffffffffffffffffffffffffffffffffffffffff1660025f8481526020019081526020015f206002015f9054906101000a900473ffffffffffffffffffffffffffffffffffffffff1673ffffffffffffffffffffffffffffffffffffffff16036102eb576102e45f8054610263906106ca565b80601f016020809104026020016040519081016040528092919081815260200182805461028f906106ca565b80156102da5780601f106102b1576101008083540402835291602001916102da565b820191905f5260205f20905b8154815290600101906020018083116102bd57829003601f168201915b50505050506103a8565b9050610391565b61038e60025f8481526020019081526020015f20600101805461030d906106ca565b80601f0160208091040260200160405190810160405280929190818152602001828054610339906106ca565b80156103845780601f1061035b57610100808354040283529160200191610384565b820191905f5260205f20905b81548152906001019060200180831161036757829003601f168201915b50505050506103a8565b90505b919050565b805f90816103a4919061089a565b5050565b6060816040516020016103bb91906109c9565b6040516020818303038152906040529050919050565b5f604051905090565b5f5ffd5b5f5ffd5b5f5ffd5b5f5ffd5b5f601f19601f8301169050919050565b7f4e487b71000000000000000000000000000000000000000000000000000000005f52604160045260245ffd5b610430826103ea565b810181811067ffffffffffffffff8211171561044f5761044e6103fa565b5b80604052505050565b5f6104616103d1565b905061046d8282610427565b919050565b5f67ffffffffffffffff82111561048c5761048b6103fa565b5b610495826103ea565b9050602081019050919050565b828183375f83830152505050565b5f6104c26104bd84610472565b610458565b9050828152602081018484840111156104de576104dd6103e6565b5b6104e98482856104a2565b509392505050565b5f82601f830112610505576105046103e2565b5b81356105158482602086016104b0565b91505092915050565b5f819050919050565b6105308161051e565b811461053a575f5ffd5b50565b5f8135905061054b81610527565b92915050565b5f5f60408385031215610567576105666103da565b5b5f83013567ffffffffffffffff811115610584576105836103de565b5b610590858286016104f1565b92505060206105a18582860161053d565b9150509250929050565b5f602082840312156105c0576105bf6103da565b5b5f6105cd8482850161053d565b91505092915050565b5f81519050919050565b5f82825260208201905092915050565b8281835e5f83830152505050565b5f610608826105d6565b61061281856105e0565b93506106228185602086016105f0565b61062b816103ea565b840191505092915050565b5f6020820190508181035f83015261064e81846105fe565b905092915050565b5f6020828403121561066b5761066a6103da565b5b5f82013567ffffffffffffffff811115610688576106876103de565b5b610694848285016104f1565b91505092915050565b7f4e487b71000000000000000000000000000000000000000000000000000000005f52602260045260245ffd5b5f60028204905060018216806106e157607f821691505b6020821081036106f4576106f361069d565b5b50919050565b5f819050815f5260205f209050919050565b5f6020601f8301049050919050565b5f82821b905092915050565b5f600883026107567fffffffffffffffffffffffffffffffffffffffffffffffffffffffffffffffff8261071b565b610760868361071b565b95508019841693508086168417925050509392505050565b5f819050919050565b5f61079b6107966107918461051e565b610778565b61051e565b9050919050565b5f819050919050565b6107b483610781565b6107c86107c0826107a2565b848454610727565b825550505050565b5f5f905090565b6107df6107d0565b6107ea8184846107ab565b505050565b5b8181101561080d576108025f826107d7565b6001810190506107f0565b5050565b601f82111561085257610823816106fa565b61082c8461070c565b8101602085101561083b578190505b61084f6108478561070c565b8301826107ef565b50505b505050565b5f82821c905092915050565b5f6108725f1984600802610857565b1980831691505092915050565b5f61088a8383610863565b9150826002028217905092915050565b6108a3826105d6565b67ffffffffffffffff8111156108bc576108bb6103fa565b5b6108c682546106ca565b6108d1828285610811565b5f60209050601f831160018114610902575f84156108f0578287015190505b6108fa858261087f565b865550610961565b601f198416610910866106fa565b5f5b8281101561093757848901518255600182019150602085019450602081019050610912565b868310156109545784890151610950601f891682610863565b8355505b6001600288020188555050505b505050505050565b5f81905092915050565b5f61097d826105d6565b6109878185610969565b93506109978185602086016105f0565b80840191505092915050565b7f204c4a5700000000000000000000000000000000000000000000000000000000815250565b5f6109d48284610973565b91506109df826109a3565b6004820191508190509291505056fea26469706673582212209b8094a6d7683bbdeeeeb10221ce4e0c7e813141b4bd3f7fef08b5ae1e0338c364736f6c634300081e0033",
					"opcodes": "PUSH1 0x80 PUSH1 0x40 MSTORE PUSH1 0x40 MLOAD DUP1 PUSH1 0x40 ADD PUSH1 0x40 MSTORE DUP1 PUSH1 0xB DUP2 MSTORE PUSH1 0x20 ADD PUSH32 0x48656C6C6F20576F726C64000000000000000000000000000000000000000000 DUP2 MSTORE POP PUSH0 SWAP1 DUP2 PUSH2 0x47 SWAP2 SWAP1 PUSH2 0x296 JUMP JUMPDEST POP CALLVALUE DUP1 ISZERO PUSH2 0x53 JUMPI PUSH0 PUSH0 REVERT JUMPDEST POP PUSH2 0x365 JUMP JUMPDEST PUSH0 DUP2 MLOAD SWAP1 POP SWAP2 SWAP1 POP JUMP JUMPDEST PUSH32 0x4E487B7100000000000000000000000000000000000000000000000000000000 PUSH0 MSTORE PUSH1 0x41 PUSH1 0x4 MSTORE PUSH1 0x24 PUSH0 REVERT JUMPDEST PUSH32 0x4E487B7100000000000000000000000000000000000000000000000000000000 PUSH0 MSTORE PUSH1 0x22 PUSH1 0x4 MSTORE PUSH1 0x24 PUSH0 REVERT JUMPDEST PUSH0 PUSH1 0x2 DUP3 DIV SWAP1 POP PUSH1 0x1 DUP3 AND DUP1 PUSH2 0xD4 JUMPI PUSH1 0x7F DUP3 AND SWAP2 POP JUMPDEST PUSH1 0x20 DUP3 LT DUP2 SUB PUSH2 0xE7 JUMPI PUSH2 0xE6 PUSH2 0x90 JUMP JUMPDEST JUMPDEST POP SWAP2 SWAP1 POP JUMP JUMPDEST PUSH0 DUP2 SWAP1 POP DUP2 PUSH0 MSTORE PUSH1 0x20 PUSH0 KECCAK256 SWAP1 POP SWAP2 SWAP1 POP JUMP JUMPDEST PUSH0 PUSH1 0x20 PUSH1 0x1F DUP4 ADD DIV SWAP1 POP SWAP2 SWAP1 POP JUMP JUMPDEST PUSH0 DUP3 DUP3 SHL SWAP1 POP SWAP3 SWAP2 POP POP JUMP JUMPDEST PUSH0 PUSH1 0x8 DUP4 MUL PUSH2 0x149 PUSH32 0xFFFFFFFFFFFFFFFFFFFFFFFFFFFFFFFFFFFFFFFFFFFFFFFFFFFFFFFFFFFFFFFF DUP3 PUSH2 0x10E JUMP JUMPDEST PUSH2 0x153 DUP7 DUP4 PUSH2 0x10E JUMP JUMPDEST SWAP6 POP DUP1 NOT DUP5 AND SWAP4 POP DUP1 DUP7 AND DUP5 OR SWAP3 POP POP POP SWAP4 SWAP3 POP POP POP JUMP JUMPDEST PUSH0 DUP2 SWAP1 POP SWAP2 SWAP1 POP JUMP JUMPDEST PUSH0 DUP2 SWAP1 POP SWAP2 SWAP1 POP JUMP JUMPDEST PUSH0 PUSH2 0x197 PUSH2 0x192 PUSH2 0x18D DUP5 PUSH2 0x16B JUMP JUMPDEST PUSH2 0x174 JUMP JUMPDEST PUSH2 0x16B JUMP JUMPDEST SWAP1 POP SWAP2 SWAP1 POP JUMP JUMPDEST PUSH0 DUP2 SWAP1 POP SWAP2 SWAP1 POP JUMP JUMPDEST PUSH2 0x1B0 DUP4 PUSH2 0x17D JUMP JUMPDEST PUSH2 0x1C4 PUSH2 0x1BC DUP3 PUSH2 0x19E JUMP JUMPDEST DUP5 DUP5 SLOAD PUSH2 0x11A JUMP JUMPDEST DUP3 SSTORE POP POP POP POP JUMP JUMPDEST PUSH0 PUSH0 SWAP1 POP SWAP1 JUMP JUMPDEST PUSH2 0x1DB PUSH2 0x1CC JUMP JUMPDEST PUSH2 0x1E6 DUP2 DUP5 DUP5 PUSH2 0x1A7 JUMP JUMPDEST POP POP POP JUMP JUMPDEST JUMPDEST DUP2 DUP2 LT ISZERO PUSH2 0x209 JUMPI PUSH2 0x1FE PUSH0 DUP3 PUSH2 0x1D3 JUMP JUMPDEST PUSH1 0x1 DUP2 ADD SWAP1 POP PUSH2 0x1EC JUMP JUMPDEST POP POP JUMP JUMPDEST PUSH1 0x1F DUP3 GT ISZERO PUSH2 0x24E JUMPI PUSH2 0x21F DUP2 PUSH2 0xED JUMP JUMPDEST PUSH2 0x228 DUP5 PUSH2 0xFF JUMP JUMPDEST DUP2 ADD PUSH1 0x20 DUP6 LT ISZERO PUSH2 0x237 JUMPI DUP2 SWAP1 POP JUMPDEST PUSH2 0x24B PUSH2 0x243 DUP6 PUSH2 0xFF JUMP JUMPDEST DUP4 ADD DUP3 PUSH2 0x1EB JUMP JUMPDEST POP POP JUMPDEST POP POP POP JUMP JUMPDEST PUSH0 DUP3 DUP3 SHR SWAP1 POP SWAP3 SWAP2 POP POP JUMP JUMPDEST PUSH0 PUSH2 0x26E PUSH0 NOT DUP5 PUSH1 0x8 MUL PUSH2 0x253 JUMP JUMPDEST NOT DUP1 DUP4 AND SWAP2 POP POP SWAP3 SWAP2 POP POP JUMP JUMPDEST PUSH0 PUSH2 0x286 DUP4 DUP4 PUSH2 0x25F JUMP JUMPDEST SWAP2 POP DUP3 PUSH1 0x2 MUL DUP3 OR SWAP1 POP SWAP3 SWAP2 POP POP JUMP JUMPDEST PUSH2 0x29F DUP3 PUSH2 0x59 JUMP JUMPDEST PUSH8 0xFFFFFFFFFFFFFFFF DUP2 GT ISZERO PUSH2 0x2B8 JUMPI PUSH2 0x2B7 PUSH2 0x63 JUMP JUMPDEST JUMPDEST PUSH2 0x2C2 DUP3 SLOAD PUSH2 0xBD JUMP JUMPDEST PUSH2 0x2CD DUP3 DUP3 DUP6 PUSH2 0x20D JUMP JUMPDEST PUSH0 PUSH1 0x20 SWAP1 POP PUSH1 0x1F DUP4 GT PUSH1 0x1 DUP2 EQ PUSH2 0x2FE JUMPI PUSH0 DUP5 ISZERO PUSH2 0x2EC JUMPI DUP3 DUP8 ADD MLOAD SWAP1 POP JUMPDEST PUSH2 0x2F6 DUP6 DUP3 PUSH2 0x27B JUMP JUMPDEST DUP7 SSTORE POP PUSH2 0x35D JUMP JUMPDEST PUSH1 0x1F NOT DUP5 AND PUSH2 0x30C DUP7 PUSH2 0xED JUMP JUMPDEST PUSH0 JUMPDEST DUP3 DUP2 LT ISZERO PUSH2 0x333 JUMPI DUP5 DUP10 ADD MLOAD DUP3 SSTORE PUSH1 0x1 DUP3 ADD SWAP2 POP PUSH1 0x20 DUP6 ADD SWAP5 POP PUSH1 0x20 DUP2 ADD SWAP1 POP PUSH2 0x30E JUMP JUMPDEST DUP7 DUP4 LT ISZERO PUSH2 0x350 JUMPI DUP5 DUP10 ADD MLOAD PUSH2 0x34C PUSH1 0x1F DUP10 AND DUP3 PUSH2 0x25F JUMP JUMPDEST DUP4 SSTORE POP JUMPDEST PUSH1 0x1 PUSH1 0x2 DUP9 MUL ADD DUP9 SSTORE POP POP POP JUMPDEST POP POP POP POP POP POP JUMP JUMPDEST PUSH2 0xA24 DUP1 PUSH2 0x372 PUSH0 CODECOPY PUSH0 RETURN INVALID PUSH1 0x80 PUSH1 0x40 MSTORE CALLVALUE DUP1 ISZERO PUSH2 0xF JUMPI PUSH0 PUSH0 REVERT JUMPDEST POP PUSH1 0x4 CALLDATASIZE LT PUSH2 0x3F JUMPI PUSH0 CALLDATALOAD PUSH1 0xE0 SHR DUP1 PUSH4 0x23516793 EQ PUSH2 0x43 JUMPI DUP1 PUSH4 0x42257B31 EQ PUSH2 0x5F JUMPI DUP1 PUSH4 0xFE79EC20 EQ PUSH2 0x8F JUMPI JUMPDEST PUSH0 PUSH0 REVERT JUMPDEST PUSH2 0x5D PUSH1 0x4 DUP1 CALLDATASIZE SUB DUP2 ADD SWAP1 PUSH2 0x58 SWAP2 SWAP1 PUSH2 0x551 JUMP JUMPDEST PUSH2 0xAB JUMP JUMPDEST STOP JUMPDEST PUSH2 0x79 PUSH1 0x4 DUP1 CALLDATASIZE SUB DUP2 ADD SWAP1 PUSH2 0x74 SWAP2 SWAP1 PUSH2 0x5AB JUMP JUMPDEST PUSH2 0x1EC JUMP JUMPDEST PUSH1 0x40 MLOAD PUSH2 0x86 SWAP2 SWAP1 PUSH2 0x636 JUMP JUMPDEST PUSH1 0x40 MLOAD DUP1 SWAP2 SUB SWAP1 RETURN JUMPDEST PUSH2 0xA9 PUSH1 0x4 DUP1 CALLDATASIZE SUB DUP2 ADD SWAP1 PUSH2 0xA4 SWAP2 SWAP1 PUSH2 0x656 JUMP JUMPDEST PUSH2 0x396 JUMP JUMPDEST STOP JUMPDEST PUSH0 PUSH1 0x40 MLOAD DUP1 PUSH1 0x60 ADD PUSH1 0x40 MSTORE DUP1 DUP4 DUP2 MSTORE PUSH1 0x20 ADD DUP5 DUP2 MSTORE PUSH1 0x20 ADD CALLER PUSH20 0xFFFFFFFFFFFFFFFFFFFFFFFFFFFFFFFFFFFFFFFF AND DUP2 MSTORE POP SWAP1 POP DUP1 PUSH1 0x2 PUSH0 DUP5 DUP2 MSTORE PUSH1 0x20 ADD SWAP1 DUP2 MSTORE PUSH1 0x20 ADD PUSH0 KECCAK256 PUSH0 DUP3 ADD MLOAD DUP2 PUSH0 ADD SSTORE PUSH1 0x20 DUP3 ADD MLOAD DUP2 PUSH1 0x1 ADD SWAP1 DUP2 PUSH2 0x10E SWAP2 SWAP1 PUSH2 0x89A JUMP JUMPDEST POP PUSH1 0x40 DUP3 ADD MLOAD DUP2 PUSH1 0x2 ADD PUSH0 PUSH2 0x100 EXP DUP2 SLOAD DUP2 PUSH20 0xFFFFFFFFFFFFFFFFFFFFFFFFFFFFFFFFFFFFFFFF MUL NOT AND SWAP1 DUP4 PUSH20 0xFFFFFFFFFFFFFFFFFFFFFFFFFFFFFFFFFFFFFFFF AND MUL OR SWAP1 SSTORE POP SWAP1 POP POP PUSH1 0x1 DUP2 SWAP1 DUP1 PUSH1 0x1 DUP2 SLOAD ADD DUP1 DUP3 SSTORE DUP1 SWAP2 POP POP PUSH1 0x1 SWAP1 SUB SWAP1 PUSH0 MSTORE PUSH1 0x20 PUSH0 KECCAK256 SWAP1 PUSH1 0x3 MUL ADD PUSH0 SWAP1 SWAP2 SWAP1 SWAP2 SWAP1 SWAP2 POP PUSH0 DUP3 ADD MLOAD DUP2 PUSH0 ADD SSTORE PUSH1 0x20 DUP3 ADD MLOAD DUP2 PUSH1 0x1 ADD SWAP1 DUP2 PUSH2 0x19E SWAP2 SWAP1 PUSH2 0x89A JUMP JUMPDEST POP PUSH1 0x40 DUP3 ADD MLOAD DUP2 PUSH1 0x2 ADD PUSH0 PUSH2 0x100 EXP DUP2 SLOAD DUP2 PUSH20 0xFFFFFFFFFFFFFFFFFFFFFFFFFFFFFFFFFFFFFFFF MUL NOT AND SWAP1 DUP4 PUSH20 0xFFFFFFFFFFFFFFFFFFFFFFFFFFFFFFFFFFFFFFFF AND MUL OR SWAP1 SSTORE POP POP POP POP POP POP JUMP JUMPDEST PUSH1 0x60 PUSH0 PUSH20 0xFFFFFFFFFFFFFFFFFFFFFFFFFFFFFFFFFFFFFFFF AND PUSH1 0x2 PUSH0 DUP5 DUP2 MSTORE PUSH1 0x20 ADD SWAP1 DUP2 MSTORE PUSH1 0x20 ADD PUSH0 KECCAK256 PUSH1 0x2 ADD PUSH0 SWAP1 SLOAD SWAP1 PUSH2 0x100 EXP SWAP1 DIV PUSH20 0xFFFFFFFFFFFFFFFFFFFFFFFFFFFFFFFFFFFFFFFF AND PUSH20 0xFFFFFFFFFFFFFFFFFFFFFFFFFFFFFFFFFFFFFFFF AND SUB PUSH2 0x2EB JUMPI PUSH2 0x2E4 PUSH0 DUP1 SLOAD PUSH2 0x263 SWAP1 PUSH2 0x6CA JUMP JUMPDEST DUP1 PUSH1 0x1F ADD PUSH1 0x20 DUP1 SWAP2 DIV MUL PUSH1 0x20 ADD PUSH1 0x40 MLOAD SWAP1 DUP2 ADD PUSH1 0x40 MSTORE DUP1 SWAP3 SWAP2 SWAP1 DUP2 DUP2 MSTORE PUSH1 0x20 ADD DUP3 DUP1 SLOAD PUSH2 0x28F SWAP1 PUSH2 0x6CA JUMP JUMPDEST DUP1 ISZERO PUSH2 0x2DA JUMPI DUP1 PUSH1 0x1F LT PUSH2 0x2B1 JUMPI PUSH2 0x100 DUP1 DUP4 SLOAD DIV MUL DUP4 MSTORE SWAP2 PUSH1 0x20 ADD SWAP2 PUSH2 0x2DA JUMP JUMPDEST DUP3 ADD SWAP2 SWAP1 PUSH0 MSTORE PUSH1 0x20 PUSH0 KECCAK256 SWAP1 JUMPDEST DUP2 SLOAD DUP2 MSTORE SWAP1 PUSH1 0x1 ADD SWAP1 PUSH1 0x20 ADD DUP1 DUP4 GT PUSH2 0x2BD JUMPI DUP3 SWAP1 SUB PUSH1 0x1F AND DUP3 ADD SWAP2 JUMPDEST POP POP POP POP POP PUSH2 0x3A8 JUMP JUMPDEST SWAP1 POP PUSH2 0x391 JUMP JUMPDEST PUSH2 0x38E PUSH1 0x2 PUSH0 DUP5 DUP2 MSTORE PUSH1 0x20 ADD SWAP1 DUP2 MSTORE PUSH1 0x20 ADD PUSH0 KECCAK256 PUSH1 0x1 ADD DUP1 SLOAD PUSH2 0x30D SWAP1 PUSH2 0x6CA JUMP JUMPDEST DUP1 PUSH1 0x1F ADD PUSH1 0x20 DUP1 SWAP2 DIV MUL PUSH1 0x20 ADD PUSH1 0x40 MLOAD SWAP1 DUP2 ADD PUSH1 0x40 MSTORE DUP1 SWAP3 SWAP2 SWAP1 DUP2 DUP2 MSTORE PUSH1 0x20 ADD DUP3 DUP1 SLOAD PUSH2 0x339 SWAP1 PUSH2 0x6CA JUMP JUMPDEST DUP1 ISZERO PUSH2 0x384 JUMPI DUP1 PUSH1 0x1F LT PUSH2 0x35B JUMPI PUSH2 0x100 DUP1 DUP4 SLOAD DIV MUL DUP4 MSTORE SWAP2 PUSH1 0x20 ADD SWAP2 PUSH2 0x384 JUMP JUMPDEST DUP3 ADD SWAP2 SWAP1 PUSH0 MSTORE PUSH1 0x20 PUSH0 KECCAK256 SWAP1 JUMPDEST DUP2 SLOAD DUP2 MSTORE SWAP1 PUSH1 0x1 ADD SWAP1 PUSH1 0x20 ADD DUP1 DUP4 GT PUSH2 0x367 JUMPI DUP3 SWAP1 SUB PUSH1 0x1F AND DUP3 ADD SWAP2 JUMPDEST POP POP POP POP POP PUSH2 0x3A8 JUMP JUMPDEST SWAP1 POP JUMPDEST SWAP2 SWAP1 POP JUMP JUMPDEST DUP1 PUSH0 SWAP1 DUP2 PUSH2 0x3A4 SWAP2 SWAP1 PUSH2 0x89A JUMP JUMPDEST POP POP JUMP JUMPDEST PUSH1 0x60 DUP2 PUSH1 0x40 MLOAD PUSH1 0x20 ADD PUSH2 0x3BB SWAP2 SWAP1 PUSH2 0x9C9 JUMP JUMPDEST PUSH1 0x40 MLOAD PUSH1 0x20 DUP2 DUP4 SUB SUB DUP2 MSTORE SWAP1 PUSH1 0x40 MSTORE SWAP1 POP SWAP2 SWAP1 POP JUMP JUMPDEST PUSH0 PUSH1 0x40 MLOAD SWAP1 POP SWAP1 JUMP JUMPDEST PUSH0 PUSH0 REVERT JUMPDEST PUSH0 PUSH0 REVERT JUMPDEST PUSH0 PUSH0 REVERT JUMPDEST PUSH0 PUSH0 REVERT JUMPDEST PUSH0 PUSH1 0x1F NOT PUSH1 0x1F DUP4 ADD AND SWAP1 POP SWAP2 SWAP1 POP JUMP JUMPDEST PUSH32 0x4E487B7100000000000000000000000000000000000000000000000000000000 PUSH0 MSTORE PUSH1 0x41 PUSH1 0x4 MSTORE PUSH1 0x24 PUSH0 REVERT JUMPDEST PUSH2 0x430 DUP3 PUSH2 0x3EA JUMP JUMPDEST DUP2 ADD DUP2 DUP2 LT PUSH8 0xFFFFFFFFFFFFFFFF DUP3 GT OR ISZERO PUSH2 0x44F JUMPI PUSH2 0x44E PUSH2 0x3FA JUMP JUMPDEST JUMPDEST DUP1 PUSH1 0x40 MSTORE POP POP POP JUMP JUMPDEST PUSH0 PUSH2 0x461 PUSH2 0x3D1 JUMP JUMPDEST SWAP1 POP PUSH2 0x46D DUP3 DUP3 PUSH2 0x427 JUMP JUMPDEST SWAP2 SWAP1 POP JUMP JUMPDEST PUSH0 PUSH8 0xFFFFFFFFFFFFFFFF DUP3 GT ISZERO PUSH2 0x48C JUMPI PUSH2 0x48B PUSH2 0x3FA JUMP JUMPDEST JUMPDEST PUSH2 0x495 DUP3 PUSH2 0x3EA JUMP JUMPDEST SWAP1 POP PUSH1 0x20 DUP2 ADD SWAP1 POP SWAP2 SWAP1 POP JUMP JUMPDEST DUP3 DUP2 DUP4 CALLDATACOPY PUSH0 DUP4 DUP4 ADD MSTORE POP POP POP JUMP JUMPDEST PUSH0 PUSH2 0x4C2 PUSH2 0x4BD DUP5 PUSH2 0x472 JUMP JUMPDEST PUSH2 0x458 JUMP JUMPDEST SWAP1 POP DUP3 DUP2 MSTORE PUSH1 0x20 DUP2 ADD DUP5 DUP5 DUP5 ADD GT ISZERO PUSH2 0x4DE JUMPI PUSH2 0x4DD PUSH2 0x3E6 JUMP JUMPDEST JUMPDEST PUSH2 0x4E9 DUP5 DUP3 DUP6 PUSH2 0x4A2 JUMP JUMPDEST POP SWAP4 SWAP3 POP POP POP JUMP JUMPDEST PUSH0 DUP3 PUSH1 0x1F DUP4 ADD SLT PUSH2 0x505 JUMPI PUSH2 0x504 PUSH2 0x3E2 JUMP JUMPDEST JUMPDEST DUP2 CALLDATALOAD PUSH2 0x515 DUP5 DUP3 PUSH1 0x20 DUP7 ADD PUSH2 0x4B0 JUMP JUMPDEST SWAP2 POP POP SWAP3 SWAP2 POP POP JUMP JUMPDEST PUSH0 DUP2 SWAP1 POP SWAP2 SWAP1 POP JUMP JUMPDEST PUSH2 0x530 DUP2 PUSH2 0x51E JUMP JUMPDEST DUP2 EQ PUSH2 0x53A JUMPI PUSH0 PUSH0 REVERT JUMPDEST POP JUMP JUMPDEST PUSH0 DUP2 CALLDATALOAD SWAP1 POP PUSH2 0x54B DUP2 PUSH2 0x527 JUMP JUMPDEST SWAP3 SWAP2 POP POP JUMP JUMPDEST PUSH0 PUSH0 PUSH1 0x40 DUP4 DUP6 SUB SLT ISZERO PUSH2 0x567 JUMPI PUSH2 0x566 PUSH2 0x3DA JUMP JUMPDEST JUMPDEST PUSH0 DUP4 ADD CALLDATALOAD PUSH8 0xFFFFFFFFFFFFFFFF DUP2 GT ISZERO PUSH2 0x584 JUMPI PUSH2 0x583 PUSH2 0x3DE JUMP JUMPDEST JUMPDEST PUSH2 0x590 DUP6 DUP3 DUP7 ADD PUSH2 0x4F1 JUMP JUMPDEST SWAP3 POP POP PUSH1 0x20 PUSH2 0x5A1 DUP6 DUP3 DUP7 ADD PUSH2 0x53D JUMP JUMPDEST SWAP2 POP POP SWAP3 POP SWAP3 SWAP1 POP JUMP JUMPDEST PUSH0 PUSH1 0x20 DUP3 DUP5 SUB SLT ISZERO PUSH2 0x5C0 JUMPI PUSH2 0x5BF PUSH2 0x3DA JUMP JUMPDEST JUMPDEST PUSH0 PUSH2 0x5CD DUP5 DUP3 DUP6 ADD PUSH2 0x53D JUMP JUMPDEST SWAP2 POP POP SWAP3 SWAP2 POP POP JUMP JUMPDEST PUSH0 DUP2 MLOAD SWAP1 POP SWAP2 SWAP1 POP JUMP JUMPDEST PUSH0 DUP3 DUP3 MSTORE PUSH1 0x20 DUP3 ADD SWAP1 POP SWAP3 SWAP2 POP POP JUMP JUMPDEST DUP3 DUP2 DUP4 MCOPY PUSH0 DUP4 DUP4 ADD MSTORE POP POP POP JUMP JUMPDEST PUSH0 PUSH2 0x608 DUP3 PUSH2 0x5D6 JUMP JUMPDEST PUSH2 0x612 DUP2 DUP6 PUSH2 0x5E0 JUMP JUMPDEST SWAP4 POP PUSH2 0x622 DUP2 DUP6 PUSH1 0x20 DUP7 ADD PUSH2 0x5F0 JUMP JUMPDEST PUSH2 0x62B DUP2 PUSH2 0x3EA JUMP JUMPDEST DUP5 ADD SWAP2 POP POP SWAP3 SWAP2 POP POP JUMP JUMPDEST PUSH0 PUSH1 0x20 DUP3 ADD SWAP1 POP DUP2 DUP2 SUB PUSH0 DUP4 ADD MSTORE PUSH2 0x64E DUP2 DUP5 PUSH2 0x5FE JUMP JUMPDEST SWAP1 POP SWAP3 SWAP2 POP POP JUMP JUMPDEST PUSH0 PUSH1 0x20 DUP3 DUP5 SUB SLT ISZERO PUSH2 0x66B JUMPI PUSH2 0x66A PUSH2 0x3DA JUMP JUMPDEST JUMPDEST PUSH0 DUP3 ADD CALLDATALOAD PUSH8 0xFFFFFFFFFFFFFFFF DUP2 GT ISZERO PUSH2 0x688 JUMPI PUSH2 0x687 PUSH2 0x3DE JUMP JUMPDEST JUMPDEST PUSH2 0x694 DUP5 DUP3 DUP6 ADD PUSH2 0x4F1 JUMP JUMPDEST SWAP2 POP POP SWAP3 SWAP2 POP POP JUMP JUMPDEST PUSH32 0x4E487B7100000000000000000000000000000000000000000000000000000000 PUSH0 MSTORE PUSH1 0x22 PUSH1 0x4 MSTORE PUSH1 0x24 PUSH0 REVERT JUMPDEST PUSH0 PUSH1 0x2 DUP3 DIV SWAP1 POP PUSH1 0x1 DUP3 AND DUP1 PUSH2 0x6E1 JUMPI PUSH1 0x7F DUP3 AND SWAP2 POP JUMPDEST PUSH1 0x20 DUP3 LT DUP2 SUB PUSH2 0x6F4 JUMPI PUSH2 0x6F3 PUSH2 0x69D JUMP JUMPDEST JUMPDEST POP SWAP2 SWAP1 POP JUMP JUMPDEST PUSH0 DUP2 SWAP1 POP DUP2 PUSH0 MSTORE PUSH1 0x20 PUSH0 KECCAK256 SWAP1 POP SWAP2 SWAP1 POP JUMP JUMPDEST PUSH0 PUSH1 0x20 PUSH1 0x1F DUP4 ADD DIV SWAP1 POP SWAP2 SWAP1 POP JUMP JUMPDEST PUSH0 DUP3 DUP3 SHL SWAP1 POP SWAP3 SWAP2 POP POP JUMP JUMPDEST PUSH0 PUSH1 0x8 DUP4 MUL PUSH2 0x756 PUSH32 0xFFFFFFFFFFFFFFFFFFFFFFFFFFFFFFFFFFFFFFFFFFFFFFFFFFFFFFFFFFFFFFFF DUP3 PUSH2 0x71B JUMP JUMPDEST PUSH2 0x760 DUP7 DUP4 PUSH2 0x71B JUMP JUMPDEST SWAP6 POP DUP1 NOT DUP5 AND SWAP4 POP DUP1 DUP7 AND DUP5 OR SWAP3 POP POP POP SWAP4 SWAP3 POP POP POP JUMP JUMPDEST PUSH0 DUP2 SWAP1 POP SWAP2 SWAP1 POP JUMP JUMPDEST PUSH0 PUSH2 0x79B PUSH2 0x796 PUSH2 0x791 DUP5 PUSH2 0x51E JUMP JUMPDEST PUSH2 0x778 JUMP JUMPDEST PUSH2 0x51E JUMP JUMPDEST SWAP1 POP SWAP2 SWAP1 POP JUMP JUMPDEST PUSH0 DUP2 SWAP1 POP SWAP2 SWAP1 POP JUMP JUMPDEST PUSH2 0x7B4 DUP4 PUSH2 0x781 JUMP JUMPDEST PUSH2 0x7C8 PUSH2 0x7C0 DUP3 PUSH2 0x7A2 JUMP JUMPDEST DUP5 DUP5 SLOAD PUSH2 0x727 JUMP JUMPDEST DUP3 SSTORE POP POP POP POP JUMP JUMPDEST PUSH0 PUSH0 SWAP1 POP SWAP1 JUMP JUMPDEST PUSH2 0x7DF PUSH2 0x7D0 JUMP JUMPDEST PUSH2 0x7EA DUP2 DUP5 DUP5 PUSH2 0x7AB JUMP JUMPDEST POP POP POP JUMP JUMPDEST JUMPDEST DUP2 DUP2 LT ISZERO PUSH2 0x80D JUMPI PUSH2 0x802 PUSH0 DUP3 PUSH2 0x7D7 JUMP JUMPDEST PUSH1 0x1 DUP2 ADD SWAP1 POP PUSH2 0x7F0 JUMP JUMPDEST POP POP JUMP JUMPDEST PUSH1 0x1F DUP3 GT ISZERO PUSH2 0x852 JUMPI PUSH2 0x823 DUP2 PUSH2 0x6FA JUMP JUMPDEST PUSH2 0x82C DUP5 PUSH2 0x70C JUMP JUMPDEST DUP2 ADD PUSH1 0x20 DUP6 LT ISZERO PUSH2 0x83B JUMPI DUP2 SWAP1 POP JUMPDEST PUSH2 0x84F PUSH2 0x847 DUP6 PUSH2 0x70C JUMP JUMPDEST DUP4 ADD DUP3 PUSH2 0x7EF JUMP JUMPDEST POP POP JUMPDEST POP POP POP JUMP JUMPDEST PUSH0 DUP3 DUP3 SHR SWAP1 POP SWAP3 SWAP2 POP POP JUMP JUMPDEST PUSH0 PUSH2 0x872 PUSH0 NOT DUP5 PUSH1 0x8 MUL PUSH2 0x857 JUMP JUMPDEST NOT DUP1 DUP4 AND SWAP2 POP POP SWAP3 SWAP2 POP POP JUMP JUMPDEST PUSH0 PUSH2 0x88A DUP4 DUP4 PUSH2 0x863 JUMP JUMPDEST SWAP2 POP DUP3 PUSH1 0x2 MUL DUP3 OR SWAP1 POP SWAP3 SWAP2 POP POP JUMP JUMPDEST PUSH2 0x8A3 DUP3 PUSH2 0x5D6 JUMP JUMPDEST PUSH8 0xFFFFFFFFFFFFFFFF DUP2 GT ISZERO PUSH2 0x8BC JUMPI PUSH2 0x8BB PUSH2 0x3FA JUMP JUMPDEST JUMPDEST PUSH2 0x8C6 DUP3 SLOAD PUSH2 0x6CA JUMP JUMPDEST PUSH2 0x8D1 DUP3 DUP3 DUP6 PUSH2 0x811 JUMP JUMPDEST PUSH0 PUSH1 0x20 SWAP1 POP PUSH1 0x1F DUP4 GT PUSH1 0x1 DUP2 EQ PUSH2 0x902 JUMPI PUSH0 DUP5 ISZERO PUSH2 0x8F0 JUMPI DUP3 DUP8 ADD MLOAD SWAP1 POP JUMPDEST PUSH2 0x8FA DUP6 DUP3 PUSH2 0x87F JUMP JUMPDEST DUP7 SSTORE POP PUSH2 0x961 JUMP JUMPDEST PUSH1 0x1F NOT DUP5 AND PUSH2 0x910 DUP7 PUSH2 0x6FA JUMP JUMPDEST PUSH0 JUMPDEST DUP3 DUP2 LT ISZERO PUSH2 0x937 JUMPI DUP5 DUP10 ADD MLOAD DUP3 SSTORE PUSH1 0x1 DUP3 ADD SWAP2 POP PUSH1 0x20 DUP6 ADD SWAP5 POP PUSH1 0x20 DUP2 ADD SWAP1 POP PUSH2 0x912 JUMP JUMPDEST DUP7 DUP4 LT ISZERO PUSH2 0x954 JUMPI DUP5 DUP10 ADD MLOAD PUSH2 0x950 PUSH1 0x1F DUP10 AND DUP3 PUSH2 0x863 JUMP JUMPDEST DUP4 SSTORE POP JUMPDEST PUSH1 0x1 PUSH1 0x2 DUP9 MUL ADD DUP9 SSTORE POP POP POP JUMPDEST POP POP POP POP POP POP JUMP JUMPDEST PUSH0 DUP2 SWAP1 POP SWAP3 SWAP2 POP POP JUMP JUMPDEST PUSH0 PUSH2 0x97D DUP3 PUSH2 0x5D6 JUMP JUMPDEST PUSH2 0x987 DUP2 DUP6 PUSH2 0x969 JUMP JUMPDEST SWAP4 POP PUSH2 0x997 DUP2 DUP6 PUSH1 0x20 DUP7 ADD PUSH2 0x5F0 JUMP JUMPDEST DUP1 DUP5 ADD SWAP2 POP POP SWAP3 SWAP2 POP POP JUMP JUMPDEST PUSH32 0x204C4A5700000000000000000000000000000000000000000000000000000000 DUP2 MSTORE POP JUMP JUMPDEST PUSH0 PUSH2 0x9D4 DUP3 DUP5 PUSH2 0x973 JUMP JUMPDEST SWAP2 POP PUSH2 0x9DF DUP3 PUSH2 0x9A3 JUMP JUMPDEST PUSH1 0x4 DUP3 ADD SWAP2 POP DUP2 SWAP1 POP SWAP3 SWAP2 POP POP JUMP INVALID LOG2 PUSH5 0x6970667358 0x22 SLT KECCAK256 SWAP12 DUP1 SWAP5 0xA6 0xD7 PUSH9 0x3BBDEEEEB10221CE4E 0xC PUSH31 0x813141B4BD3F7FEF08B5AE1E0338C364736F6C634300081E00330000000000 "
				},
				"gasEstimates": {
					"creation": {
						"codeDepositCost": "519200",
						"executionCost": "infinite",
						"totalCost": "infinite"
					},
					"external": {
						"sayHello(uint256)": "infinite",
						"sayHelloLang(string)": "infinite",
						"setInfos(string,uint256)": "infinite"
					},
					"internal": {
						"addInfo(string memory)": "infinite"
					}
				},
				"methodIdentifiers": {
					"sayHello(uint256)": "42257b31",
					"sayHelloLang(string)": "fe79ec20",
					"setInfos(string,uint256)": "23516793"
				}
			},
			"storageLayout": {
				"storage": [
					{
						"astId": 4,
						"contract": "test.sol:HelloWorld",
						"label": "sayStr",
						"offset": 0,
						"slot": "0",
						"type": "t_string_storage"
					},
					{
						"astId": 15,
						"contract": "test.sol:HelloWorld",
						"label": "infos",
						"offset": 0,
						"slot": "1",
						"type": "t_array(t_struct(Info)11_storage)dyn_storage"
					},
					{
						"astId": 20,
						"contract": "test.sol:HelloWorld",
						"label": "infoMapping",
						"offset": 0,
						"slot": "2",
						"type": "t_mapping(t_uint256,t_struct(Info)11_storage)"
					}
				],
				"types": {
					"t_address": {
						"encoding": "inplace",
						"label": "address",
						"numberOfBytes": "20"
					},
					"t_array(t_struct(Info)11_storage)dyn_storage": {
						"base": "t_struct(Info)11_storage",
						"encoding": "dynamic_array",
						"label": "struct HelloWorld.Info[]",
						"numberOfBytes": "32"
					},
					"t_mapping(t_uint256,t_struct(Info)11_storage)": {
						"encoding": "mapping",
						"key": "t_uint256",
						"label": "mapping(uint256 => struct HelloWorld.Info)",
						"numberOfBytes": "32",
						"value": "t_struct(Info)11_storage"
					},
					"t_string_storage": {
						"encoding": "bytes",
						"label": "string",
						"numberOfBytes": "32"
					},
					"t_struct(Info)11_storage": {
						"encoding": "inplace",
						"label": "struct HelloWorld.Info",
						"members": [
							{
								"astId": 6,
								"contract": "test.sol:HelloWorld",
								"label": "id",
								"offset": 0,
								"slot": "0",
								"type": "t_uint256"
							},
							{
								"astId": 8,
								"contract": "test.sol:HelloWorld",
								"label": "phrase",
								"offset": 0,
								"slot": "1",
								"type": "t_string_storage"
							},
							{
								"astId": 10,
								"contract": "test.sol:HelloWorld",
								"label": "addr",
								"offset": 0,
								"slot": "2",
								"type": "t_address"
							}
						],
						"numberOfBytes": "96"
					},
					"t_uint256": {
						"encoding": "inplace",
						"label": "uint256",
						"numberOfBytes": "32"
					}
				}
			},
			"userdoc": {
				"kind": "user",
				"methods": {},
				"version": 1
			}
		}
	}
}